{
  "_format": "hh-sol-artifact-1",
  "contractName": "VTVLMilestoneFactory",
  "sourceName": "contracts/VTVLMilestoneFactory.sol",
  "abi": [
    {
      "anonymous": false,
      "inputs": [
        {
          "indexed": true,
          "internalType": "address",
          "name": "milestoneAddress",
          "type": "address"
        },
        {
          "indexed": false,
          "internalType": "address",
          "name": "creator",
          "type": "address"
        }
      ],
      "name": "CreateMilestoneContract",
      "type": "event"
    },
    {
      "anonymous": false,
      "inputs": [
        {
          "indexed": true,
          "internalType": "address",
          "name": "previousOwner",
          "type": "address"
        },
        {
          "indexed": true,
          "internalType": "address",
          "name": "newOwner",
          "type": "address"
        }
      ],
      "name": "OwnershipTransferred",
      "type": "event"
    },
    {
      "inputs": [
        {
          "internalType": "contract IERC20",
          "name": "_tokenAddress",
          "type": "address"
        },
        {
          "internalType": "uint256",
          "name": "_allocation",
          "type": "uint256"
        },
        {
          "internalType": "uint256[]",
          "name": "_allocationPercents",
          "type": "uint256[]"
        },
        {
          "internalType": "address[]",
          "name": "_recipients",
          "type": "address[]"
        }
      ],
      "name": "createSimpleMilestones",
      "outputs": [],
      "stateMutability": "nonpayable",
      "type": "function"
    },
    {
      "inputs": [
        {
          "internalType": "contract IERC20",
          "name": "_tokenAddress",
          "type": "address"
        },
        {
          "internalType": "uint256",
          "name": "_allocation",
          "type": "uint256"
        },
        {
          "components": [
            {
              "internalType": "uint8",
              "name": "percent",
              "type": "uint8"
            },
            {
              "internalType": "uint128",
              "name": "period",
              "type": "uint128"
            },
            {
              "internalType": "uint120",
              "name": "releaseIntervalSecs",
              "type": "uint120"
            }
          ],
          "internalType": "struct InputMilestone[]",
          "name": "_milestones",
          "type": "tuple[]"
        },
        {
          "internalType": "address[]",
          "name": "_recipients",
          "type": "address[]"
        }
      ],
      "name": "createVestingMilestone",
      "outputs": [],
      "stateMutability": "nonpayable",
      "type": "function"
    },
    {
      "inputs": [],
      "name": "owner",
      "outputs": [
        {
          "internalType": "address",
          "name": "",
          "type": "address"
        }
      ],
      "stateMutability": "view",
      "type": "function"
    },
    {
      "inputs": [],
      "name": "renounceOwnership",
      "outputs": [],
      "stateMutability": "nonpayable",
      "type": "function"
    },
    {
      "inputs": [
        {
          "internalType": "address",
          "name": "newOwner",
          "type": "address"
        }
      ],
      "name": "transferOwnership",
      "outputs": [],
      "stateMutability": "nonpayable",
      "type": "function"
    }
  ],
  "bytecode": "0x608060405234801561001057600080fd5b5061001a33610023565b60018055610073565b600080546001600160a01b038381166001600160a01b0319831681178455604051919092169283917f8be0079c531659141344cd1fd0a4f28419497f9722a3daafe3b4186f6b6457e09190a35050565b614004806100826000396000f3fe60806040523480156200001157600080fd5b50600436106200005e5760003560e01c806352966e7b14620000635780635ea0b8cc146200007c578063715018a614620000935780638da5cb5b146200009d578063f2fde38b14620000bc575b600080fd5b6200007a620000743660046200094d565b620000d3565b005b6200007a6200008d36600462000a14565b620001e1565b6200007a62000262565b600054604080516001600160a01b039092168252519081900360200190f35b6200007a620000cd36600462000a88565b6200027a565b620000dd620002f9565b80620001255760405162461bcd60e51b8152602060048201526012602482015271496e76616c696420526563697069656e747360701b60448201526064015b60405180910390fd5b62000131848462000354565b60008686868686866040516200014790620008cc565b620001589695949392919062000b13565b604051809103906000f08015801562000175573d6000803e3d6000fd5b509050620001908762000189848962000be5565b8362000444565b6040513381526001600160a01b038216907f10e0c441726f272453dc8fa4287163a2596b82211ff2ee9508e35919abeafac69060200160405180910390a250620001d960018055565b505050505050565b620001eb620002f9565b806200022f5760405162461bcd60e51b8152602060048201526012602482015271496e76616c696420526563697069656e747360701b60448201526064016200011c565b6200023b8484620004d3565b60008686868686866040516200025190620008da565b620001589695949392919062000c13565b6200026c62000558565b620002786000620005b4565b565b6200028462000558565b6001600160a01b038116620002eb5760405162461bcd60e51b815260206004820152602660248201527f4f776e61626c653a206e6577206f776e657220697320746865207a65726f206160448201526564647265737360d01b60648201526084016200011c565b620002f681620005b4565b50565b6002600154036200034d5760405162461bcd60e51b815260206004820152601f60248201527f5265656e7472616e637947756172643a207265656e7472616e742063616c6c0060448201526064016200011c565b6002600155565b60008180620003a15760405162461bcd60e51b81526020600482015260186024820152770929cac82989288be9a92988aa6a89e9c8abe988a9c8ea8960431b60448201526064016200011c565b60005b81811015620003eb57848482818110620003c257620003c262000c89565b620003da926020606090920201908101915062000c9f565b60ff169290920191600101620003a4565b50816064146200043e5760405162461bcd60e51b815260206004820152601b60248201527f494e56414c49445f414c4c4f434154494f4e5f50455243454e5453000000000060448201526064016200011c565b50505050565b6040516370a0823160e01b81523360048201526000906001600160a01b038516906370a0823190602401602060405180830381865afa1580156200048c573d6000803e3d6000fd5b505050506040513d601f19601f82011682018060405250810190620004b2919062000cbd565b90508281106200043e576200043e6001600160a01b03851633848662000604565b60008180620005205760405162461bcd60e51b81526020600482015260186024820152770929cac82989288be9a92988aa6a89e9c8abe988a9c8ea8960431b60448201526064016200011c565b60005b81811015620003eb5784848281811062000541576200054162000c89565b905060200201358301925080600101905062000523565b6000546001600160a01b03163314620002785760405162461bcd60e51b815260206004820181905260248201527f4f776e61626c653a2063616c6c6572206973206e6f7420746865206f776e657260448201526064016200011c565b600080546001600160a01b038381166001600160a01b0319831681178455604051919092169283917f8be0079c531659141344cd1fd0a4f28419497f9722a3daafe3b4186f6b6457e09190a35050565b604080516001600160a01b038581166024830152848116604483015260648083018590528351808403909101815260849092018352602080830180516001600160e01b03166323b872dd60e01b17905283518085019094528084527f5361666545524332303a206c6f772d6c6576656c2063616c6c206661696c6564908401526200043e928792916000916200069f91851690849062000729565b9050805160001480620006c3575080806020019051810190620006c3919062000cd7565b620007245760405162461bcd60e51b815260206004820152602a60248201527f5361666545524332303a204552433230206f7065726174696f6e20646964206e6044820152691bdd081cdd58d8d9595960b21b60648201526084016200011c565b505050565b60606200073a848460008562000742565b949350505050565b606082471015620007a55760405162461bcd60e51b815260206004820152602660248201527f416464726573733a20696e73756666696369656e742062616c616e636520666f6044820152651c8818d85b1b60d21b60648201526084016200011c565b600080866001600160a01b03168587604051620007c3919062000d2a565b60006040518083038185875af1925050503d806000811462000802576040519150601f19603f3d011682016040523d82523d6000602084013e62000807565b606091505b50915091506200081a8783838762000825565b979650505050505050565b606083156200089957825160000362000891576001600160a01b0385163b620008915760405162461bcd60e51b815260206004820152601d60248201527f416464726573733a2063616c6c20746f206e6f6e2d636f6e747261637400000060448201526064016200011c565b50816200073a565b6200073a8383815115620008b05781518083602001fd5b8060405162461bcd60e51b81526004016200011c919062000d48565b611bd08062000d7e83390190565b611681806200294e83390190565b6001600160a01b0381168114620002f657600080fd5b60008083601f8401126200091157600080fd5b50813567ffffffffffffffff8111156200092a57600080fd5b6020830191508360208260051b85010111156200094657600080fd5b9250929050565b600080600080600080608087890312156200096757600080fd5b86356200097481620008e8565b955060208701359450604087013567ffffffffffffffff808211156200099957600080fd5b818901915089601f830112620009ae57600080fd5b813581811115620009be57600080fd5b8a6020606083028501011115620009d457600080fd5b602083019650809550506060890135915080821115620009f357600080fd5b5062000a0289828a01620008fe565b979a9699509497509295939492505050565b6000806000806000806080878903121562000a2e57600080fd5b863562000a3b81620008e8565b955060208701359450604087013567ffffffffffffffff8082111562000a6057600080fd5b62000a6e8a838b01620008fe565b90965094506060890135915080821115620009f357600080fd5b60006020828403121562000a9b57600080fd5b813562000aa881620008e8565b9392505050565b803560ff8116811462000ac157600080fd5b919050565b8183526000602080850194508260005b8581101562000b0857813562000aec81620008e8565b6001600160a01b03168752958201959082019060010162000ad6565b509495945050505050565b6001600160a01b0387168152602080820187905260806040808401829052908301869052600091879160a08501845b8981101562000bbf5760ff62000b588662000aaf565b168252838501356fffffffffffffffffffffffffffffffff811680821462000b7f57600080fd5b8386015250848301356effffffffffffffffffffffffffffff811680821462000ba757600080fd5b83850152506060948501949091019060010162000b42565b50858103606087015262000bd581888a62000ac6565b9c9b505050505050505050505050565b600081600019048311821515161562000c0e57634e487b7160e01b600052601160045260246000fd5b500290565b6001600160a01b038716815260208101869052608060408201819052810184905260006001600160fb1b0385111562000c4b57600080fd5b8460051b808760a0850137808301905060a081016000815260a084830301606085015262000c7b81868862000ac6565b9a9950505050505050505050565b634e487b7160e01b600052603260045260246000fd5b60006020828403121562000cb257600080fd5b62000aa88262000aaf565b60006020828403121562000cd057600080fd5b5051919050565b60006020828403121562000cea57600080fd5b8151801515811462000aa857600080fd5b60005b8381101562000d1857818101518382015260200162000cfe565b838111156200043e5750506000910152565b6000825162000d3e81846020870162000cfb565b9190910192915050565b602081526000825180602084015262000d6981604085016020870162000cfb565b601f01601f1916919091016040019291505056fe60806040523480156200001157600080fd5b5060405162001bd038038062001bd08339810160408190526200003491620004fc565b3260008181526020818152604091829020805460ff1916600190811790915591519182527fe529461c8529abc0e0fe7c5ee361f74fe22e0b7574df1fc0b7558a282091fb78910160405180910390a2600180556001600160a01b038416620000d45760405162461bcd60e51b815260206004820152600f60248201526e494e56414c49445f4144445245535360881b604482015260640160405180910390fd5b600380546001600160a01b0319166001600160a01b0386161790558051620001049060029060208401906200034a565b508260048190555062000122826200012c60201b62000c691760201c565b50505050620006b8565b805160005b8181101562000345576040805160e081018252600080825260208201819052918101829052606081018290526080810182905260a0810182905260c081019190915283828151811062000188576200018862000651565b60209081029190910181015101516001600160801b031660408201528351849083908110620001bb57620001bb62000651565b60200260200101516040015181606001906001600160781b031690816001600160781b0316815250506064600454858481518110620001fe57620001fe62000651565b60200260200101516000015160ff1662000219919062000667565b62000225919062000695565b6001600160f81b031660a082015260025460005b8181101562000336578260076000600284815481106200025d576200025d62000651565b60009182526020808320909101546001600160a01b0316835282810193909352604091820181208882528352819020835181559183015160018381019190915590830151600283018054606086015160808701511515600160f81b9081026001600160f81b036001600160781b03909316600160801b027fff000000000000000000000000000000000000000000000000000000000000009094166001600160801b03909616959095179290921781169390931790915560a085015160c09095015160ff16029316929092176003909101550162000239565b50826001019250505062000131565b505050565b828054828255906000526020600020908101928215620003a2579160200282015b82811115620003a257825182546001600160a01b0319166001600160a01b039091161782556020909201916001909101906200036b565b50620003b0929150620003b4565b5090565b5b80821115620003b05760008155600101620003b5565b6001600160a01b0381168114620003e157600080fd5b50565b634e487b7160e01b600052604160045260246000fd5b604051606081016001600160401b03811182821017156200041f576200041f620003e4565b60405290565b604051601f8201601f191681016001600160401b0381118282101715620004505762000450620003e4565b604052919050565b60006001600160401b03821115620004745762000474620003e4565b5060051b60200190565b600082601f8301126200049057600080fd5b81516020620004a9620004a38362000458565b62000425565b82815260059290921b84018101918181019086841115620004c957600080fd5b8286015b84811015620004f1578051620004e381620003cb565b8352918301918301620004cd565b509695505050505050565b600080600080608085870312156200051357600080fd5b84516200052081620003cb565b60208681015160408089015193975090955090916001600160401b03808211156200054a57600080fd5b818901915089601f8301126200055f57600080fd5b815162000570620004a38262000458565b8181526060918202840186019186820191908d8411156200059057600080fd5b948701945b838610156200061c5780868f031215620005af5760008081fd5b620005b9620003fa565b865160ff81168114620005cc5760008081fd5b8152868901516001600160801b0381168114620005e95760008081fd5b818a0152868801516001600160781b0381168114620006085760008081fd5b818901528352948501949187019162000595565b8c015190985095505050808411156200063457600080fd5b50505062000645878288016200047e565b91505092959194509250565b634e487b7160e01b600052603260045260246000fd5b60008160001904831182151516156200069057634e487b7160e01b600052601160045260246000fd5b500290565b600082620006b357634e487b7160e01b600052601260045260246000fd5b500490565b61150880620006c86000396000f3fe608060405234801561001057600080fd5b506004361061010b5760003560e01c806358d2a364116100a25780639d76ea58116100715780639d76ea5814610380578063a4317233146103ab578063b6b55f25146103be578063b74513c1146103d1578063d1bc76a1146103e657600080fd5b806358d2a3641461030f57806373e78ca31461032257806379b8d9381461036457806388a17bde1461037757600080fd5b806324d7806c116100de57806324d7806c146101625780632e1a7d4d1461018e5780634b0bddd2146101a157806356a3150b146101b457600080fd5b806304c76af014610110578063137c68fa1461011a578063195f58e9146101365780631d8b44c514610159575b600080fd5b6101186103f9565b005b61012360055481565b6040519081526020015b60405180910390f35b6101496101443660046111d6565b61051c565b604051901515815260200161012d565b61012360065481565b610149610170366004611200565b6001600160a01b031660009081526020819052604090205460ff1690565b61011861019c36600461121b565b610556565b6101186101af366004611242565b610724565b61029e6101c23660046111d6565b6040805160e081018252600080825260208201819052918101829052606081018290526080810182905260a0810182905260c0810191909152506001600160a01b0382166000908152600760209081526040808320848452825291829020825160e0810184528154815260018201549281019290925260028101546001600160801b038116938301939093526001600160781b03600160801b840416606083015260ff600160f81b938490048116151560808401526003909101546001600160f81b03811660a08401529290920490911660c082015292915050565b60405161012d919081518152602080830151908201526040808301516001600160801b0316908201526060808301516001600160781b03169082015260808083015115159082015260a0808301516001600160f81b03169082015260c09182015160ff169181019190915260e00190565b61011861031d3660046111d6565b6107f8565b6101236103303660046111d6565b6001600160a01b0391909116600090815260076020908152604080832093835292905220600301546001600160f81b031690565b6101236103723660046111d6565b610988565b61012360045481565b600354610393906001600160a01b031681565b6040516001600160a01b03909116815260200161012d565b6101236103b9366004611279565b6109c4565b6101186103cc36600461121b565b610bb1565b6103d9610bdd565b60405161012d91906112ac565b6103936103f436600461121b565b610c3f565b3360009081526020819052604090205460ff166104315760405162461bcd60e51b8152600401610428906112f9565b60405180910390fd5b610439610e5b565b600060065460055461044b919061133e565b6003546040516370a0823160e01b81523060048201526001600160a01b03909116906370a0823190602401602060405180830381865afa158015610493573d6000803e3d6000fd5b505050506040513d601f19601f820116820180604052508101906104b79190611355565b6104c1919061133e565b6003549091506104db906001600160a01b03163383610eb4565b60405181815233907fca1cf43de312865665f595e88f569f9d5246690c07df26e86aba01147e6d13149060200160405180910390a25061051a60018055565b565b6001600160a01b03821660009081526007602090815260408083208484529091528120541561054c57600161054f565b60005b9392505050565b33600081815260076020908152604080832085845290915281206003015483916001600160f81b0390911690036105be5760405162461bcd60e51b815260206004820152600c60248201526b4e4f5f4d494c4553544f4e4560a01b6044820152606401610428565b3360008181526007602090815260408083208784529091528120548591036106185760405162461bcd60e51b815260206004820152600d60248201526c1393d517d0d3d3541311551151609a1b6044820152606401610428565b610620610e5b565b3360008181526007602090815260408083208984529091528120916106469088426109c4565b9050816001015481116106915760405162461bcd60e51b81526020600482015260136024820152724e4f5448494e475f544f5f574954484452415760681b6044820152606401610428565b60008260010154826106a3919061133e565b905081836001018190555080600660008282546106c0919061136e565b90915550506003546106dc906001600160a01b03163383610eb4565b60405181815233907fd8138f8a3f377c5259ca548e70e4c2de94f129f5a11036a15b69513cba2b426a9060200160405180910390a250505061071d60018055565b5050505050565b3360009081526020819052604090205460ff166107535760405162461bcd60e51b8152600401610428906112f9565b6001600160a01b03821661079b5760405162461bcd60e51b815260206004820152600f60248201526e494e56414c49445f4144445245535360881b6044820152606401610428565b6001600160a01b03821660008181526020818152604091829020805460ff191685151590811790915591519182527fe529461c8529abc0e0fe7c5ee361f74fe22e0b7574df1fc0b7558a282091fb78910160405180910390a25050565b3360009081526020819052604090205460ff166108275760405162461bcd60e51b8152600401610428906112f9565b6003546040516370a0823160e01b81523060048201526000916001600160a01b0316906370a0823190602401602060405180830381865afa158015610870573d6000803e3d6000fd5b505050506040513d601f19601f820116820180604052508101906108949190611355565b6002546004549192506108a691611386565b6006546108b3908361136e565b10156108f15760405162461bcd60e51b815260206004820152600d60248201526c1393d517d1115413d4d2551151609a1b6044820152606401610428565b6001600160a01b038316600090815260076020908152604080832085845290915290208054156109575760405162461bcd60e51b81526020600482015260116024820152701053149150511657d0d3d3541311551151607a1b6044820152606401610428565b4281556003810154600580546001600160f81b039092169160009061097d90849061136e565b909155505050505050565b6001600160a01b03821660009081526007602090815260408083208484529091528120600101546109ba8484426109c4565b61054f919061133e565b6001600160a01b0383166000908152600760209081526040808320858452909152812060030154849084906001600160f81b03168303610a355760405162461bcd60e51b815260206004820152600c60248201526b4e4f5f4d494c4553544f4e4560a01b6044820152606401610428565b6001600160a01b03861660009081526007602090815260408083208884528252808320815160e081018352815480825260018301549482019490945260028201546001600160801b038116938201939093526001600160781b03600160801b840416606082015260ff600160f81b938490048116151560808301526003909201546001600160f81b03811660a0830152929092041660c08201529103610adf576000935050610ba8565b60408101518151610af9916001600160801b03169061136e565b851115610b145760a001516001600160f81b03169250610ba8565b8051851115610ba2578051600090610b2c908761133e565b9050600082606001516001600160781b031682610b4991906113bb565b9050600083604001516001600160801b03168460a0015185606001516001600160781b0316610b7891906113cf565b610b8291906113fe565b6001600160f81b03169050610b978282611386565b965050505050610ba8565b60009350505b50509392505050565b610bb9610e5b565b600354610bd1906001600160a01b0316333084610f17565b610bda60018055565b50565b60606002805480602002602001604051908101604052809291908181526020018280548015610c3557602002820191906000526020600020905b81546001600160a01b03168152600190910190602001808311610c17575b5050505050905090565b60028181548110610c4f57600080fd5b6000918252602090912001546001600160a01b0316905081565b805160005b81811015610e56576040805160e081018252600080825260208201819052918101829052606081018290526080810182905260a0810182905260c0810191909152838281518110610cc157610cc1611424565b60209081029190910181015101516001600160801b031660408201528351849083908110610cf157610cf1611424565b60200260200101516040015181606001906001600160781b031690816001600160781b0316815250506064600454858481518110610d3157610d31611424565b60200260200101516000015160ff16610d4a9190611386565b610d5491906113bb565b6001600160f81b031660a082015260025460005b81811015610e4857826007600060028481548110610d8857610d88611424565b60009182526020808320909101546001600160a01b0316835282810193909352604091820181208882528352819020835181559183015160018381019190915590830151600283018054606086015160808701511515600160f81b9081026001600160f81b036001600160781b03909316600160801b026001600160f81b03199094166001600160801b03909616959095179290921781169390931790915560a085015160c09095015160ff160293169290921760039091015501610d68565b508260010192505050610c6e565b505050565b600260015403610ead5760405162461bcd60e51b815260206004820152601f60248201527f5265656e7472616e637947756172643a207265656e7472616e742063616c6c006044820152606401610428565b6002600155565b6040516001600160a01b038316602482015260448101829052610e5690849063a9059cbb60e01b906064015b60408051601f198184030181529190526020810180516001600160e01b03166001600160e01b031990931692909217909152610f55565b6040516001600160a01b0380851660248301528316604482015260648101829052610f4f9085906323b872dd60e01b90608401610ee0565b50505050565b6000610faa826040518060400160405280602081526020017f5361666545524332303a206c6f772d6c6576656c2063616c6c206661696c6564815250856001600160a01b031661102a9092919063ffffffff16565b9050805160001480610fcb575080806020019051810190610fcb919061143a565b610e565760405162461bcd60e51b815260206004820152602a60248201527f5361666545524332303a204552433230206f7065726174696f6e20646964206e6044820152691bdd081cdd58d8d9595960b21b6064820152608401610428565b60606110398484600085611041565b949350505050565b6060824710156110a25760405162461bcd60e51b815260206004820152602660248201527f416464726573733a20696e73756666696369656e742062616c616e636520666f6044820152651c8818d85b1b60d21b6064820152608401610428565b600080866001600160a01b031685876040516110be9190611483565b60006040518083038185875af1925050503d80600081146110fb576040519150601f19603f3d011682016040523d82523d6000602084013e611100565b606091505b50915091506111118783838761111c565b979650505050505050565b6060831561118b578251600003611184576001600160a01b0385163b6111845760405162461bcd60e51b815260206004820152601d60248201527f416464726573733a2063616c6c20746f206e6f6e2d636f6e74726163740000006044820152606401610428565b5081611039565b61103983838151156111a05781518083602001fd5b8060405162461bcd60e51b8152600401610428919061149f565b80356001600160a01b03811681146111d157600080fd5b919050565b600080604083850312156111e957600080fd5b6111f2836111ba565b946020939093013593505050565b60006020828403121561121257600080fd5b61054f826111ba565b60006020828403121561122d57600080fd5b5035919050565b8015158114610bda57600080fd5b6000806040838503121561125557600080fd5b61125e836111ba565b9150602083013561126e81611234565b809150509250929050565b60008060006060848603121561128e57600080fd5b611297846111ba565b95602085013595506040909401359392505050565b6020808252825182820181905260009190848201906040850190845b818110156112ed5783516001600160a01b0316835292840192918401916001016112c8565b50909695505050505050565b602080825260159082015274105113525397d050d0d154d4d7d491545552549151605a1b604082015260600190565b634e487b7160e01b600052601160045260246000fd5b60008282101561135057611350611328565b500390565b60006020828403121561136757600080fd5b5051919050565b6000821982111561138157611381611328565b500190565b60008160001904831182151516156113a0576113a0611328565b500290565b634e487b7160e01b600052601260045260246000fd5b6000826113ca576113ca6113a5565b500490565b60006001600160f81b03828116848216811515828404821116156113f5576113f5611328565b02949350505050565b60006001600160f81b0383811680611418576114186113a5565b92169190910492915050565b634e487b7160e01b600052603260045260246000fd5b60006020828403121561144c57600080fd5b815161054f81611234565b60005b8381101561147257818101518382015260200161145a565b83811115610f4f5750506000910152565b60008251611495818460208701611457565b9190910192915050565b60208152600082518060208401526114be816040850160208701611457565b601f01601f1916919091016040019291505056fea2646970667358221220389b6dc5b98d60529e37b85cf79e6eddbc67d221f64e40b9edf546226bfb634464736f6c634300080e003360806040523480156200001157600080fd5b506040516200168138038062001681833981016040819052620000349162000365565b3260008181526020818152604091829020805460ff1916600190811790915591519182527fe529461c8529abc0e0fe7c5ee361f74fe22e0b7574df1fc0b7558a282091fb78910160405180910390a26001805580516200009c906002906020840190620001de565b50600380546001600160a01b0319166001600160a01b0386161790556004839055620000d482620000de602090811b62000ac017901c565b50505050620004b3565b805160005b81811015620001d95760025460045484516000916064918790869081106200010f576200010f6200044c565b602002602001015162000123919062000462565b6200012f919062000490565b905060005b82811015620001ca578160076000600284815481106200015857620001586200044c565b6000918252602080832091909101546001600160a01b031683528281019390935260409182018120888252909252902060030180547fff00000000000000000000000000000000000000000000000000000000000000166001600160f81b039290921691909117905560010162000134565b508260010192505050620000e3565b505050565b82805482825590600052602060002090810192821562000236579160200282015b828111156200023657825182546001600160a01b0319166001600160a01b03909116178255602090920191600190910190620001ff565b506200024492915062000248565b5090565b5b8082111562000244576000815560010162000249565b6001600160a01b03811681146200027557600080fd5b50565b634e487b7160e01b600052604160045260246000fd5b604051601f8201601f191681016001600160401b0381118282101715620002b957620002b962000278565b604052919050565b60006001600160401b03821115620002dd57620002dd62000278565b5060051b60200190565b600082601f830112620002f957600080fd5b81516020620003126200030c83620002c1565b6200028e565b82815260059290921b840181019181810190868411156200033257600080fd5b8286015b848110156200035a5780516200034c816200025f565b835291830191830162000336565b509695505050505050565b600080600080608085870312156200037c57600080fd5b845162000389816200025f565b60208681015160408801519296509450906001600160401b0380821115620003b057600080fd5b818801915088601f830112620003c557600080fd5b8151620003d66200030c82620002c1565b81815260059190911b8301840190848101908b831115620003f657600080fd5b938501935b828510156200041657845182529385019390850190620003fb565b60608b015190975094505050808311156200043057600080fd5b50506200044087828801620002e7565b91505092959194509250565b634e487b7160e01b600052603260045260246000fd5b60008160001904831182151516156200048b57634e487b7160e01b600052601160045260246000fd5b500290565b600082620004ae57634e487b7160e01b600052601260045260246000fd5b500490565b6111be80620004c36000396000f3fe608060405234801561001057600080fd5b50600436106100f55760003560e01c806356a3150b116100975780639d76ea58116100665780639d76ea5814610328578063b6b55f2514610353578063b74513c114610366578063d1bc76a11461037b57600080fd5b806356a3150b1461019e57806358d2a364146102f957806379b8d9381461030c57806388a17bde1461031f57600080fd5b80631d8b44c5116100d35780631d8b44c51461014357806324d7806c1461014c5780632e1a7d4d146101785780634b0bddd21461018b57600080fd5b806304c76af0146100fa578063137c68fa14610104578063195f58e914610120575b600080fd5b61010261038e565b005b61010d60055481565b6040519081526020015b60405180910390f35b61013361012e366004610f15565b6104b1565b6040519015158152602001610117565b61010d60065481565b61013361015a366004610f3f565b6001600160a01b031660009081526020819052604090205460ff1690565b610102610186366004610f5a565b6104ed565b610102610199366004610f81565b6106d9565b6102886101ac366004610f15565b6040805160e081018252600080825260208201819052918101829052606081018290526080810182905260a0810182905260c0810191909152506001600160a01b0382166000908152600760209081526040808320848452825291829020825160e0810184528154815260018201549281019290925260028101546001600160801b038116938301939093526001600160781b03600160801b840416606083015260ff600160f81b938490048116151560808401526003909101546001600160f81b03811660a08401529290920490911660c082015292915050565b604051610117919081518152602080830151908201526040808301516001600160801b0316908201526060808301516001600160781b03169082015260808083015115159082015260a0808301516001600160f81b03169082015260c09182015160ff169181019190915260e00190565b610102610307366004610f15565b6107ad565b61010d61031a366004610f15565b61093d565b61010d60045481565b60035461033b906001600160a01b031681565b6040516001600160a01b039091168152602001610117565b610102610361366004610f5a565b610a08565b61036e610a34565b6040516101179190610fb8565b61033b610389366004610f5a565b610a96565b3360009081526020819052604090205460ff166103c65760405162461bcd60e51b81526004016103bd90611005565b60405180910390fd5b6103ce610b9a565b60006006546005546103e0919061104a565b6003546040516370a0823160e01b81523060048201526001600160a01b03909116906370a0823190602401602060405180830381865afa158015610428573d6000803e3d6000fd5b505050506040513d601f19601f8201168201806040525081019061044c9190611061565b610456919061104a565b600354909150610470906001600160a01b03163383610bf3565b60405181815233907fca1cf43de312865665f595e88f569f9d5246690c07df26e86aba01147e6d13149060200160405180910390a2506104af60018055565b565b6001600160a01b0382166000908152600760209081526040808320848452909152812054156104e15760016104e4565b60005b90505b92915050565b33600081815260076020908152604080832085845290915281206003015483916001600160f81b0390911690036105555760405162461bcd60e51b815260206004820152600c60248201526b4e4f5f4d494c4553544f4e4560a01b60448201526064016103bd565b3360008181526007602090815260408083208784529091528120548591036105af5760405162461bcd60e51b815260206004820152600d60248201526c1393d517d0d3d3541311551151609a1b60448201526064016103bd565b6105b7610b9a565b33600090815260076020908152604080832088845290915290206002810154600160f81b900460ff16156106225760405162461bcd60e51b81526020600482015260126024820152711053149150511657d5d2551211149055d15160721b60448201526064016103bd565b6002810180546001600160f81b03908116600160f81b1790915560038201546006805491909216919060009061065990849061107a565b9091555061068490503360038084015490546001600160a01b031691906001600160f81b0316610bf3565b6003810154604080516001600160f81b0390921682525133917fd8138f8a3f377c5259ca548e70e4c2de94f129f5a11036a15b69513cba2b426a919081900360200190a2506106d260018055565b5050505050565b3360009081526020819052604090205460ff166107085760405162461bcd60e51b81526004016103bd90611005565b6001600160a01b0382166107505760405162461bcd60e51b815260206004820152600f60248201526e494e56414c49445f4144445245535360881b60448201526064016103bd565b6001600160a01b03821660008181526020818152604091829020805460ff191685151590811790915591519182527fe529461c8529abc0e0fe7c5ee361f74fe22e0b7574df1fc0b7558a282091fb78910160405180910390a25050565b3360009081526020819052604090205460ff166107dc5760405162461bcd60e51b81526004016103bd90611005565b6003546040516370a0823160e01b81523060048201526000916001600160a01b0316906370a0823190602401602060405180830381865afa158015610825573d6000803e3d6000fd5b505050506040513d601f19601f820116820180604052508101906108499190611061565b60025460045491925061085b91611092565b600654610868908361107a565b10156108a65760405162461bcd60e51b815260206004820152600d60248201526c1393d517d1115413d4d2551151609a1b60448201526064016103bd565b6001600160a01b0383166000908152600760209081526040808320858452909152902080541561090c5760405162461bcd60e51b81526020600482015260116024820152701053149150511657d0d3d3541311551151607a1b60448201526064016103bd565b4281556003810154600580546001600160f81b039092169160009061093290849061107a565b909155505050505050565b6001600160a01b03821660009081526007602090815260408083208484528252808320815160e081018352815480825260018301549482019490945260028201546001600160801b038116938201939093526001600160781b03600160801b840416606082015260ff600160f81b938490048116151560808301526003909201546001600160f81b03811660a0830152929092041660c08201529015806109e5575080608001515b156109f45760009150506104e7565b60a001516001600160f81b031690506104e7565b610a10610b9a565b600354610a28906001600160a01b0316333084610c56565b610a3160018055565b50565b60606002805480602002602001604051908101604052809291908181526020018280548015610a8c57602002820191906000526020600020905b81546001600160a01b03168152600190910190602001808311610a6e575b5050505050905090565b60028181548110610aa657600080fd5b6000918252602090912001546001600160a01b0316905081565b805160005b81811015610b95576002546004548451600091606491879086908110610aed57610aed6110b1565b6020026020010151610aff9190611092565b610b0991906110c7565b905060005b82811015610b8757816007600060028481548110610b2e57610b2e6110b1565b6000918252602080832091909101546001600160a01b031683528281019390935260409182018120888252909252902060030180546001600160f81b0319166001600160f81b0392909216919091179055600101610b0e565b508260010192505050610ac5565b505050565b600260015403610bec5760405162461bcd60e51b815260206004820152601f60248201527f5265656e7472616e637947756172643a207265656e7472616e742063616c6c0060448201526064016103bd565b6002600155565b6040516001600160a01b038316602482015260448101829052610b9590849063a9059cbb60e01b906064015b60408051601f198184030181529190526020810180516001600160e01b03166001600160e01b031990931692909217909152610c94565b6040516001600160a01b0380851660248301528316604482015260648101829052610c8e9085906323b872dd60e01b90608401610c1f565b50505050565b6000610ce9826040518060400160405280602081526020017f5361666545524332303a206c6f772d6c6576656c2063616c6c206661696c6564815250856001600160a01b0316610d699092919063ffffffff16565b9050805160001480610d0a575080806020019051810190610d0a91906110e9565b610b955760405162461bcd60e51b815260206004820152602a60248201527f5361666545524332303a204552433230206f7065726174696f6e20646964206e6044820152691bdd081cdd58d8d9595960b21b60648201526084016103bd565b6060610d788484600085610d80565b949350505050565b606082471015610de15760405162461bcd60e51b815260206004820152602660248201527f416464726573733a20696e73756666696369656e742062616c616e636520666f6044820152651c8818d85b1b60d21b60648201526084016103bd565b600080866001600160a01b03168587604051610dfd9190611139565b60006040518083038185875af1925050503d8060008114610e3a576040519150601f19603f3d011682016040523d82523d6000602084013e610e3f565b606091505b5091509150610e5087838387610e5b565b979650505050505050565b60608315610eca578251600003610ec3576001600160a01b0385163b610ec35760405162461bcd60e51b815260206004820152601d60248201527f416464726573733a2063616c6c20746f206e6f6e2d636f6e747261637400000060448201526064016103bd565b5081610d78565b610d788383815115610edf5781518083602001fd5b8060405162461bcd60e51b81526004016103bd9190611155565b80356001600160a01b0381168114610f1057600080fd5b919050565b60008060408385031215610f2857600080fd5b610f3183610ef9565b946020939093013593505050565b600060208284031215610f5157600080fd5b6104e482610ef9565b600060208284031215610f6c57600080fd5b5035919050565b8015158114610a3157600080fd5b60008060408385031215610f9457600080fd5b610f9d83610ef9565b91506020830135610fad81610f73565b809150509250929050565b6020808252825182820181905260009190848201906040850190845b81811015610ff95783516001600160a01b031683529284019291840191600101610fd4565b50909695505050505050565b602080825260159082015274105113525397d050d0d154d4d7d491545552549151605a1b604082015260600190565b634e487b7160e01b600052601160045260246000fd5b60008282101561105c5761105c611034565b500390565b60006020828403121561107357600080fd5b5051919050565b6000821982111561108d5761108d611034565b500190565b60008160001904831182151516156110ac576110ac611034565b500290565b634e487b7160e01b600052603260045260246000fd5b6000826110e457634e487b7160e01b600052601260045260246000fd5b500490565b6000602082840312156110fb57600080fd5b815161110681610f73565b9392505050565b60005b83811015611128578181015183820152602001611110565b83811115610c8e5750506000910152565b6000825161114b81846020870161110d565b9190910192915050565b602081526000825180602084015261117481604085016020870161110d565b601f01601f1916919091016040019291505056fea264697066735822122098f546ba10269cff4bf5a3591e2809ea9ae3812c73d8d7a08b6db80771a68f8564736f6c634300080e0033a26469706673582212200a71ae40a6395763ef8cadde4faf8ab31d8a11145ae141d92c8dd78501b1136164736f6c634300080e0033",
  "linkReferences": {},
  "deployedLinkReferences": {}
}