{
  "_format": "hh-sol-artifact-1",
  "contractName": "VTVLVestingFactory",
  "sourceName": "contracts/VTVLVestingFactory.sol",
  "abi": [
    {
      "anonymous": false,
      "inputs": [
        {
          "indexed": true,
          "internalType": "address",
          "name": "vestingAddress",
          "type": "address"
        },
        {
          "indexed": false,
          "internalType": "address",
          "name": "deployer",
          "type": "address"
        }
      ],
      "name": "CreateVestingContract",
      "type": "event"
    },
    {
      "anonymous": false,
      "inputs": [
        {
          "indexed": true,
          "internalType": "address",
          "name": "previousOwner",
          "type": "address"
        },
        {
          "indexed": true,
          "internalType": "address",
          "name": "newOwner",
          "type": "address"
        }
      ],
      "name": "OwnershipTransferred",
      "type": "event"
    },
    {
      "inputs": [
        {
          "internalType": "contract IERC20Extented",
          "name": "_tokenAddress",
          "type": "address"
        },
        {
          "internalType": "uint256",
          "name": "_feePercent",
          "type": "uint256"
        }
      ],
      "name": "createVestingContract",
      "outputs": [],
      "stateMutability": "nonpayable",
      "type": "function"
    },
    {
      "inputs": [],
      "name": "owner",
      "outputs": [
        {
          "internalType": "address",
          "name": "",
          "type": "address"
        }
      ],
      "stateMutability": "view",
      "type": "function"
    },
    {
      "inputs": [],
      "name": "renounceOwnership",
      "outputs": [],
      "stateMutability": "nonpayable",
      "type": "function"
    },
    {
      "inputs": [
        {
          "internalType": "address",
          "name": "_vestingContract",
          "type": "address"
        },
        {
          "internalType": "uint256",
          "name": "_feePercent",
          "type": "uint256"
        }
      ],
      "name": "setFee",
      "outputs": [],
      "stateMutability": "nonpayable",
      "type": "function"
    },
    {
      "inputs": [
        {
          "internalType": "address",
          "name": "newOwner",
          "type": "address"
        }
      ],
      "name": "transferOwnership",
      "outputs": [],
      "stateMutability": "nonpayable",
      "type": "function"
    },
    {
      "inputs": [
        {
          "internalType": "address",
          "name": "_vestingContract",
          "type": "address"
        },
        {
          "internalType": "address",
          "name": "_newReceiver",
          "type": "address"
        }
      ],
      "name": "updateFeeReceiver",
      "outputs": [],
      "stateMutability": "nonpayable",
      "type": "function"
    },
    {
      "inputs": [
        {
          "internalType": "address",
          "name": "_vestingContract",
          "type": "address"
        },
        {
          "internalType": "uint256",
          "name": "_threshold",
          "type": "uint256"
        }
      ],
      "name": "updateconversionThreshold",
      "outputs": [],
      "stateMutability": "nonpayable",
      "type": "function"
    },
    {
      "inputs": [
        {
          "internalType": "address",
          "name": "_tokenAddress",
          "type": "address"
        },
        {
          "internalType": "address",
          "name": "_receiver",
          "type": "address"
        }
      ],
      "name": "withdraw",
      "outputs": [],
      "stateMutability": "nonpayable",
      "type": "function"
    }
  ],
  "bytecode": "0x608060405234801561001057600080fd5b5061001a3361001f565b61006f565b600080546001600160a01b038381166001600160a01b0319831681178455604051919092169283917f8be0079c531659141344cd1fd0a4f28419497f9722a3daafe3b4186f6b6457e09190a35050565b61404f8061007e6000396000f3fe60806040523480156200001157600080fd5b5060043610620000935760003560e01c8063e55156b51162000062578063e55156b514620000f1578063f2fde38b1462000108578063f4b29841146200011f578063f940e385146200013657600080fd5b806312c126b41462000098578063715018a614620000b15780638da5cb5b14620000bb578063cbf1ad7e14620000da575b600080fd5b620000af620000a936600462000647565b6200014d565b005b620000af62000200565b600054604080516001600160a01b039092168252519081900360200190f35b620000af620000eb36600462000685565b62000218565b620000af6200010236600462000685565b6200028d565b620000af62000119366004620006b4565b62000359565b620000af6200013036600462000685565b620003d8565b620000af6200014736600462000647565b6200047f565b6200015762000577565b6001600160a01b038216600090815260016020526040902054829060ff166200019d5760405162461bcd60e51b81526004016200019490620006db565b60405180910390fd5b6040516331a6faf960e21b81526001600160a01b03838116600483015284169063c69bebe4906024015b600060405180830381600087803b158015620001e257600080fd5b505af1158015620001f7573d6000803e3d6000fd5b50505050505050565b6200020a62000577565b620002166000620005d3565b565b6200022262000577565b6001600160a01b038216600090815260016020526040902054829060ff166200025f5760405162461bcd60e51b81526004016200019490620006db565b60405163508de5df60e01b8152600481018390526001600160a01b0384169063508de5df90602401620001c7565b6200029762000577565b6001600160a01b038216600090815260016020526040902054829060ff16620002d45760405162461bcd60e51b81526004016200019490620006db565b600082118015620002e6575061271082105b156200031a576040516369fe0e2d60e01b8152600481018390526001600160a01b038416906369fe0e2d90602401620001c7565b60405162461bcd60e51b81526020600482015260136024820152721253959053125117d1915157d4115490d15395606a1b604482015260640162000194565b6200036362000577565b6001600160a01b038116620003ca5760405162461bcd60e51b815260206004820152602660248201527f4f776e61626c653a206e6577206f776e657220697320746865207a65726f206160448201526564647265737360d01b606482015260840162000194565b620003d581620005d3565b50565b60008282604051620003ea9062000623565b6001600160a01b0390921682526020820152604001604051809103906000f0801580156200041c573d6000803e3d6000fd5b506001600160a01b038116600081815260016020818152604092839020805460ff1916909217909155905133815292935090917fe5211516932e9042c46c90d9b551b41d1e991bc87e19bd664dc7b48f5323eef1910160405180910390a2505050565b6200048962000577565b6040516370a0823160e01b81523060048201526000906001600160a01b038416906370a0823190602401602060405180830381865afa158015620004d1573d6000803e3d6000fd5b505050506040513d601f19601f82011682018060405250810190620004f7919062000712565b60405163a9059cbb60e01b81526001600160a01b038481166004830152602482018390529192509084169063a9059cbb906044016020604051808303816000875af11580156200054b573d6000803e3d6000fd5b505050506040513d601f19601f820116820180604052508101906200057191906200072c565b50505050565b6000546001600160a01b03163314620002165760405162461bcd60e51b815260206004820181905260248201527f4f776e61626c653a2063616c6c6572206973206e6f7420746865206f776e6572604482015260640162000194565b600080546001600160a01b038381166001600160a01b0319831681178455604051919092169283917f8be0079c531659141344cd1fd0a4f28419497f9722a3daafe3b4186f6b6457e09190a35050565b6138c9806200075183390190565b6001600160a01b0381168114620003d557600080fd5b600080604083850312156200065b57600080fd5b8235620006688162000631565b915060208301356200067a8162000631565b809150509250929050565b600080604083850312156200069957600080fd5b8235620006a68162000631565b946020939093013593505050565b600060208284031215620006c757600080fd5b8135620006d48162000631565b9392505050565b60208082526018908201527f4e6f74206f75722076657374696e6720636f6e74726163740000000000000000604082015260600190565b6000602082840312156200072557600080fd5b5051919050565b6000602082840312156200073f57600080fd5b81518015158114620006d457600080fdfe61010060405260006002553480156200001757600080fd5b50604051620038c9380380620038c98339810160408190526200003a9162000247565b3260008181526020818152604091829020805460ff1916600190811790915591519182528492917fe529461c8529abc0e0fe7c5ee361f74fe22e0b7574df1fc0b7558a282091fb78910160405180910390a2600180556001600160a01b038116620000dd5760405162461bcd60e51b815260206004820152600f60248201526e494e56414c49445f4144445245535360881b604482015260640160405180910390fd5b6001600160a01b03811660808190526040805163313ce56760e01b8152905163313ce567916004808201926020929091908290030181865afa15801562000128573d6000803e3d6000fd5b505050506040513d601f19601f820116820180604052508101906200014e919062000278565b60ff1660a052608051604051630b4c774160e11b81526001600160a01b03909116600482015273a0b86991c6218b36c1d19d4a2e9eb0ce3606eb4860248201526101f46044820152731f98431c8ad98523631ae4a59f267346ea31f98490631698ee8290606401602060405180830381865afa158015620001d3573d6000803e3d6000fd5b505050506040513d601f19601f82011682018060405250810190620001f99190620002a4565b6001600160a01b031660c052503360e0819052600580546001600160a01b031916909117905560045550601e600655620002c4565b6001600160a01b03811681146200024457600080fd5b50565b600080604083850312156200025b57600080fd5b825162000268816200022e565b6020939093015192949293505050565b6000602082840312156200028b57600080fd5b815160ff811681146200029d57600080fd5b9392505050565b600060208284031215620002b757600080fd5b81516200029d816200022e565b60805160a05160c05160e05161355b6200036e60003960008181610a7c01528181610bbf015261119001526000818161022e015281816110700152611c7001526000818161031e015281816110360152611c0c0152600081816103f30152818161109f0152818161126101528181611300015281816114ac01528181611aec01528181611ccc01528181611d0401528181611d4801528181611daa0152611e75015261355b6000f3fe608060405234801561001057600080fd5b50600436106101cf5760003560e01c80637409433111610104578063a3bd607e116100a2578063d77836ce11610071578063d77836ce1461045f578063e3d11ba014610472578063e50373f91461048d578063e865fbc7146104a057600080fd5b8063a3bd607e14610415578063b3f006741461041e578063bb09d9b714610431578063c69bebe41461044c57600080fd5b80637fd6f15c116100de5780637fd6f15c146103bf578063906d67ea146103c85780639ca33f3e146103db5780639d76ea58146103ee57600080fd5b8063740943311461039157806379b8d938146103995780637e39c799146103ac57600080fd5b80634b0bddd2116101715780635caed0291161014b5780635caed0291461031957806361bac7921461035857806369fe0e2d1461036b57806373e78ca31461037e57600080fd5b80634b0bddd2146102ca5780634f8acca3146102dd578063508de5df1461030657600080fd5b806316f0115b116101ad57806316f0115b1461022957806324d7806c146102685780632e1a7d4d146102a45780634433444b146102b757600080fd5b80630f79ab39146101d4578063137c68fa146101fd57806316226e9014610214575b600080fd5b6101e76101e2366004612abc565b6104a8565b6040516101f49190612b81565b60405180910390f35b61020660025481565b6040519081526020016101f4565b610227610222366004612bf1565b6105e0565b005b6102507f000000000000000000000000000000000000000000000000000000000000000081565b6040516001600160a01b0390911681526020016101f4565b610294610276366004612c95565b6001600160a01b031660009081526020819052604090205460ff1690565b60405190151581526020016101f4565b6102276102b2366004612cb2565b61062c565b6102066102c5366004612abc565b610870565b6102276102d8366004612cd9565b61099d565b6102066102eb366004612c95565b6001600160a01b031660009081526003602052604090205490565b610227610314366004612cb2565b610a71565b6103407f000000000000000000000000000000000000000000000000000000000000000081565b6040516001600160801b0390911681526020016101f4565b610206610366366004612d12565b610abe565b610227610379366004612cb2565b610bb4565b61020661038c366004612abc565b610c01565b610340600681565b6102066103a7366004612abc565b610cdf565b6102276103ba366004612abc565b610dc7565b61020660045481565b6102066103d6366004612d50565b61102e565b6102276103e9366004612d76565b6110fb565b6102507f000000000000000000000000000000000000000000000000000000000000000081565b61020660065481565b600554610250906001600160a01b031681565b61025073a0b86991c6218b36c1d19d4a2e9eb0ce3606eb4881565b61022761045a366004612c95565b611185565b61022761046d366004612cb2565b6111ef565b610250731f98431c8ad98523631ae4a59f267346ea31f98481565b61022761049b366004612c95565b6112c7565b610206611488565b6104b0612a5b565b6001600160a01b03831660009081526003602052604090205482106105105760405162461bcd60e51b81526020600482015260116024820152701393d7d4d0d2115115531157d1561254d5607a1b60448201526064015b60405180910390fd5b6001600160a01b038316600090815260036020526040902080548390811061053a5761053a612deb565b600091825260209182902060408051610120810182526004909302909101805464ffffffffff8082168552600160281b8204811695850195909552600160501b8104851692840192909252600160781b918290048416606084015260018101546080840152600281015460a0840152600301546001600160701b03811660c084015260ff600160701b820416151560e08401520490911661010082015290505b92915050565b3360009081526020819052604090205460ff1661060f5760405162461bcd60e51b815260040161050790612e01565b610617611526565b6106208161157f565b61062960018055565b50565b336000818152600360205260409020548290811061065c5760405162461bcd60e51b815260040161050790612e30565b6001600160a01b038216600090815260036020526040812080548390811061068657610686612deb565b60009182526020909120600490910201805490915064ffffffffff166106be5760405162461bcd60e51b815260040161050790612e30565b6003810154600160701b900460ff166106e95760405162461bcd60e51b815260040161050790612e30565b6106f1611526565b33600090815260036020526040812080548690811061071257610712612deb565b90600052602060002090600402019050600061073561072e3390565b8742610abe565b905081600201548111801561074a5750600081115b61078c5760405162461bcd60e51b81526020600482015260136024820152724e4f5448494e475f544f5f574954484452415760681b6044820152606401610507565b600082600201548261079e9190612e6f565b9050600081116107e65760405162461bcd60e51b81526020600482015260136024820152724e4f5448494e475f544f5f574954484452415760681b6044820152606401610507565b808360020160008282546107fa9190612e86565b9250508190555080600260008282546108139190612e6f565b9091555061082390508188611bf0565b604080518281526020810189905233917f987d620f307ff6b94d58743cb7a7509f24071586a77759b77c2d4e29f75a2f9a910160405180910390a250505061086a60018055565b50505050565b6001600160a01b038216600090815260036020526040812080548291908490811061089d5761089d612deb565b600091825260208220600491909102016003810154909250600160781b900464ffffffffff16156108e0576003820154600160781b900464ffffffffff166108f1565b8154600160281b900464ffffffffff165b60028301546040805161012081018252855464ffffffffff8082168352600160281b820481166020840152600160501b8204811693830193909352600160781b90819004831660608301526001870154608083015260a0820184905260038701546001600160701b03811660c084015260ff600160701b820416151560e0840152049091166101008201529192509061098a9083611f43565b6109949190612e6f565b95945050505050565b3360009081526020819052604090205460ff166109cc5760405162461bcd60e51b815260040161050790612e01565b6001600160a01b038216610a145760405162461bcd60e51b815260206004820152600f60248201526e494e56414c49445f4144445245535360881b6044820152606401610507565b6001600160a01b03821660008181526020818152604091829020805460ff191685151590811790915591519182527fe529461c8529abc0e0fe7c5ee361f74fe22e0b7574df1fc0b7558a282091fb78910160405180910390a25050565b336001600160a01b037f00000000000000000000000000000000000000000000000000000000000000001614610ab95760405162461bcd60e51b815260040161050790612e9e565b600655565b6001600160a01b0383166000908152600360205260408120805482919085908110610aeb57610aeb612deb565b6000918252602080832060408051610120810182526004909402909101805464ffffffffff8082168652600160281b8204811694860194909452600160501b8104841692850192909252600160781b918290048316606085015260018101546080850152600281015460a0850152600301546001600160701b03811660c085015260ff600160701b820416151560e08501520416610100820181905290925015610b9a57816101000151610b9c565b835b9050610ba88282611f43565b925050505b9392505050565b336001600160a01b037f00000000000000000000000000000000000000000000000000000000000000001614610bfc5760405162461bcd60e51b815260040161050790612e9e565b600455565b6001600160a01b0382166000908152600360205260408120805482919084908110610c2e57610c2e612deb565b600091825260209182902060408051610120810182526004909302909101805464ffffffffff8082168552600160281b82048116958501869052600160501b8204811693850193909352600160781b908190048316606085015260018201546080850152600282015460a08501526003909101546001600160701b03811660c085015260ff600160701b820416151560e085015204166101008201529150610cd7908290611f43565b949350505050565b6001600160a01b0382166000908152600360205260408120805482919084908110610d0c57610d0c612deb565b600091825260209182902060408051610120810182526004909302909101805464ffffffffff8082168552600160281b8204811695850195909552600160501b8104851692840192909252600160781b918290048416606084015260018101546080840152600281015460a084018190526003909101546001600160701b03811660c085015260ff600160701b820416151560e0850152919091049092166101008201529150610dbd858542610abe565b610cd79190612e6f565b3360009081526020819052604090205460ff16610df65760405162461bcd60e51b815260040161050790612e01565b6001600160a01b038216600090815260036020526040902054829082908110610e315760405162461bcd60e51b815260040161050790612e30565b6001600160a01b0382166000908152600360205260408120805483908110610e5b57610e5b612deb565b60009182526020909120600490910201805490915064ffffffffff16610e935760405162461bcd60e51b815260040161050790612e30565b6003810154600160701b900460ff16610ebe5760405162461bcd60e51b815260040161050790612e30565b6001600160a01b0385166000908152600360205260408120805486908110610ee857610ee8612deb565b600091825260209091206004909102016003810154909150600160781b900464ffffffffff1615610f2b5760405162461bcd60e51b815260040161050790612e30565b6000610f378787610c01565b905080826002015410610f815760405162461bcd60e51b81526020600482015260126024820152711393d7d553959154d5115117d05353d5539560721b6044820152606401610507565b4282600301600f6101000a81548164ffffffffff021916908364ffffffffff1602179055506000610fb3888842610abe565b90506000610fc18284612e6f565b90508060026000828254610fd59190612e6f565b92505081905550886001600160a01b03167fed9a46e9df4b25f99c63227fd4e73032724c681b95d0dd076fc004ff6cdf47a78242878c60405161101b9493929190612ec3565b60405180910390a2505050505050505050565b60008061105c7f0000000000000000000000000000000000000000000000000000000000000000600a61304f565b611067906001613064565b905060006110957f00000000000000000000000000000000000000000000000000000000000000008561207d565b5090506110d881837f000000000000000000000000000000000000000000000000000000000000000073a0b86991c6218b36c1d19d4a2e9eb0ce3606eb486122c7565b92506110e66006600a61304f565b6110f1846064613064565b610cd79190613099565b3360009081526020819052604090205460ff1661112a5760405162461bcd60e51b815260040161050790612e01565b611132611526565b8060005b818110156111765761116e84848381811061115357611153612deb565b905060e002018036038101906111699190612bf1565b61157f565b600101611136565b505061118160018055565b5050565b336001600160a01b037f000000000000000000000000000000000000000000000000000000000000000016146111cd5760405162461bcd60e51b815260040161050790612e9e565b600580546001600160a01b0319166001600160a01b0392909216919091179055565b3360009081526020819052604090205460ff1661121e5760405162461bcd60e51b815260040161050790612e01565b611226611526565b6000611230611488565b9050818110156112525760405162461bcd60e51b8152600401610507906130ad565b611288335b6001600160a01b037f00000000000000000000000000000000000000000000000000000000000000001690846123d5565b60405182815233907fca1cf43de312865665f595e88f569f9d5246690c07df26e86aba01147e6d13149060200160405180910390a25061062960018055565b3360009081526020819052604090205460ff166112f65760405162461bcd60e51b815260040161050790612e01565b6112fe611526565b7f00000000000000000000000000000000000000000000000000000000000000006001600160a01b0316816001600160a01b03160361136f5760405162461bcd60e51b815260206004820152600d60248201526c24a72b20a624a22faa27a5a2a760991b6044820152606401610507565b6040516370a0823160e01b81523060048201526000906001600160a01b038316906370a0823190602401602060405180830381865afa1580156113b6573d6000803e3d6000fd5b505050506040513d601f19601f820116820180604052508101906113da91906130db565b9050600081116113fc5760405162461bcd60e51b8152600401610507906130ad565b6001600160a01b03821663a9059cbb336040516001600160e01b031960e084901b1681526001600160a01b039091166004820152602481018490526044016020604051808303816000875af1158015611459573d6000803e3d6000fd5b505050506040513d601f19601f8201168201806040525081019061147d91906130f4565b505061062960018055565b6002546040516370a0823160e01b8152306004820152600091906001600160a01b037f000000000000000000000000000000000000000000000000000000000000000016906370a0823190602401602060405180830381865afa1580156114f3573d6000803e3d6000fd5b505050506040513d601f19601f8201168201806040525081019061151791906130db565b6115219190612e6f565b905090565b6002600154036115785760405162461bcd60e51b815260206004820152601f60248201527f5265656e7472616e637947756172643a207265656e7472616e742063616c6c006044820152606401610507565b6002600155565b60c08101516001600160a01b03166115cb5760405162461bcd60e51b815260206004820152600f60248201526e494e56414c49445f4144445245535360881b6044820152606401610507565b60008160a0015182608001516115e19190612e86565b116116265760405162461bcd60e51b81526020600482015260156024820152741253959053125117d59154d5115117d05353d55395605a1b6044820152606401610507565b805164ffffffffff1661167b5760405162461bcd60e51b815260206004820152601760248201527f494e56414c49445f53544152545f54494d455354414d500000000000000000006044820152606401610507565b806020015164ffffffffff16816000015164ffffffffff16106116d85760405162461bcd60e51b81526020600482015260156024820152740494e56414c49445f454e445f54494d455354414d5605c1b6044820152606401610507565b6000816060015164ffffffffff16116117335760405162461bcd60e51b815260206004820152601860248201527f494e56414c49445f52454c454153455f494e54455256414c00000000000000006044820152606401610507565b6060810151815160208301516117499190613111565b6117539190613137565b64ffffffffff16156117a75760405162461bcd60e51b815260206004820152601760248201527f494e56414c49445f494e54455256414c5f4c454e4754480000000000000000006044820152606401610507565b6000816040015164ffffffffff161180156117c6575060008160a00151115b80156117e85750806000015164ffffffffff16816040015164ffffffffff1611155b806118095750604081015164ffffffffff16158015611809575060a0810151155b6118455760405162461bcd60e51b815260206004820152600d60248201526c24a72b20a624a22fa1a624a32360991b6044820152606401610507565b61184d612a5b565b8160000151816000019064ffffffffff16908164ffffffffff16815250508160200151816020019064ffffffffff16908164ffffffffff1681525050600081610100019064ffffffffff16908164ffffffffff16815250508160400151816040019064ffffffffff16908164ffffffffff16815250508160600151816060019064ffffffffff16908164ffffffffff168152505081608001518160800181815250508160a001518160c001906001600160701b031690816001600160701b03168152505060008160a001818152505060018160e0019015159081151581525050600360008360c001516001600160a01b03166001600160a01b0316815260200190815260200160002081908060018154018082558091505060019003906000526020600020906004020160009091909190915060008201518160000160006101000a81548164ffffffffff021916908364ffffffffff16021790555060208201518160000160056101000a81548164ffffffffff021916908364ffffffffff160217905550604082015181600001600a6101000a81548164ffffffffff021916908364ffffffffff160217905550606082015181600001600f6101000a81548164ffffffffff021916908364ffffffffff1602179055506080820151816001015560a0820151816002015560c08201518160030160006101000a8154816001600160701b0302191690836001600160701b0316021790555060e082015181600301600e6101000a81548160ff02191690831515021790555061010082015181600301600f6101000a81548164ffffffffff021916908364ffffffffff1602179055505050600082608001518360a00151611ac79190612e86565b905080600254611ad79190612e86565b6040516370a0823160e01b81523060048201527f00000000000000000000000000000000000000000000000000000000000000006001600160a01b0316906370a0823190602401602060405180830381865afa158015611b3b573d6000803e3d6000fd5b505050506040513d601f19601f82011682018060405250810190611b5f91906130db565b1015611b7d5760405162461bcd60e51b8152600401610507906130ad565b8060026000828254611b8f9190612e86565b909155505060c08301516001600160a01b0316600081815260036020526040908190205490517f4abbdf6199174a0d2f115731aab0bb048ec6357c2b36f0fec6687f92b4c675e091611be39186919061315b565b60405180910390a2505050565b60045415611f3a576000611c038361243d565b90506000611c327f0000000000000000000000000000000000000000000000000000000000000000600a61304f565b611c3e6006600a61304f565b606460065485611c4e9190613064565b611c589190613099565b611c629190613064565b611c6c9190613099565b90507f00000000000000000000000000000000000000000000000000000000000000006001600160a01b031615611e70576000611ca9600a61102e565b90506006548110611da557611cf333611cc28588612e6f565b6001600160a01b037f00000000000000000000000000000000000000000000000000000000000000001691906123d5565b600554611d2d906001600160a01b037f000000000000000000000000000000000000000000000000000000000000000081169116856123d5565b60055460408051858152602081018790526001600160a01b037f00000000000000000000000000000000000000000000000000000000000000008116928201929092529116907fa3f0e6be441aebd3eebd7f117fa7b226a1f713ddedf3d17c61a4b3176f67bbc49060600160405180910390a2611e6a565b611dd97f00000000000000000000000000000000000000000000000000000000000000006001600160a01b031633876123d5565b600554611e079073a0b86991c6218b36c1d19d4a2e9eb0ce3606eb489033906001600160a01b031685612466565b600554604080518481526020810187905273a0b86991c6218b36c1d19d4a2e9eb0ce3606eb488183015290516001600160a01b03909216917fa3f0e6be441aebd3eebd7f117fa7b226a1f713ddedf3d17c61a4b3176f67bbc49181900360600190a25b5061086a565b611ea47f00000000000000000000000000000000000000000000000000000000000000006001600160a01b031633866123d5565b600554611ed29073a0b86991c6218b36c1d19d4a2e9eb0ce3606eb489033906001600160a01b031684612466565b600554604080518381526020810186905273a0b86991c6218b36c1d19d4a2e9eb0ce3606eb488183015290516001600160a01b03909216917fa3f0e6be441aebd3eebd7f117fa7b226a1f713ddedf3d17c61a4b3176f67bbc49181900360600190a250505050565b61118133611257565b60008260e00151158015611f61575061010083015164ffffffffff16155b15611f6e575060006105da565b6000836020015164ffffffffff168364ffffffffff161115611faf578360c001516001600160701b03168460800151611fa79190612e86565b9150506105da565b836040015164ffffffffff168364ffffffffff1610611fd8575060c08301516001600160701b03165b836000015164ffffffffff168364ffffffffff161115610bad5783516000906120019085613111565b60608601519091506000906120168184613178565b612020919061319c565b90506000866000015187602001516120389190613111565b905060008164ffffffffff168364ffffffffff16896080015161205b9190613064565b6120659190613099565b90506120718186612e86565b98975050505050505050565b6000808263ffffffff166000036120bb5760405162461bcd60e51b8152602060048201526002602482015261042560f41b6044820152606401610507565b60408051600280825260608201835260009260208301908036833701905050905083816000815181106120f0576120f0612deb565b602002602001019063ffffffff16908163ffffffff168152505060008160018151811061211f5761211f612deb565b602002602001019063ffffffff16908163ffffffff1681525050600080866001600160a01b031663883bdbfd846040518263ffffffff1660e01b815260040161216891906131c9565b600060405180830381865afa158015612185573d6000803e3d6000fd5b505050506040513d6000823e601f3d908101601f191682016040526121ad91908101906132ab565b915091506000826000815181106121c6576121c6612deb565b6020026020010151836001815181106121e1576121e1612deb565b60200260200101516121f39190613377565b905060008260008151811061220a5761220a612deb565b60200260200101518360018151811061222557612225612deb565b602002602001015161223791906133c7565b905061224963ffffffff8916836133e7565b965060008260060b12801561226f575061226963ffffffff891683613425565b60060b15155b15612282578661227e81613447565b9750505b600061229b6001600160a01b0363ffffffff8b1661346a565b90506122b8640100000000600160c01b03602084901b1682613490565b96505050505050509250929050565b6000806122d38661249e565b90506001600160801b036001600160a01b038216116123595760006123016001600160a01b03831680613064565b9050836001600160a01b0316856001600160a01b03161061233957612334600160c01b876001600160801b0316836127c1565b612351565b61235181876001600160801b0316600160c01b6127c1565b9250506123cc565b60006123786001600160a01b03831680680100000000000000006127c1565b9050836001600160a01b0316856001600160a01b0316106123b0576123ab600160801b876001600160801b0316836127c1565b6123c8565b6123c881876001600160801b0316600160801b6127c1565b9250505b50949350505050565b6040516001600160a01b03831660248201526044810182905261243890849063a9059cbb60e01b906064015b60408051601f198184030181529190526020810180516001600160e01b03166001600160e01b031990931692909217909152612873565b505050565b6000612710600454836124509190613064565b61245c9061270f612e86565b6105da9190613099565b6040516001600160a01b038085166024830152831660448201526064810182905261086a9085906323b872dd60e01b90608401612401565b60008060008360020b126124b5578260020b6124bd565b8260020b6000035b9050620d89e88111156124e3576040516315e4079d60e11b815260040160405180910390fd5b6000816001166000036124fa57600160801b61250c565b6ffffcb933bd6fad37aa2d162d1a5940015b70ffffffffffffffffffffffffffffffffff1690506002821615612540576ffff97272373d413259a46990580e213a0260801c5b600482161561255f576ffff2e50f5f656932ef12357cf3c7fdcc0260801c5b600882161561257e576fffe5caca7e10e4e61c3624eaa0941cd00260801c5b601082161561259d576fffcb9843d60f6159c9db58835c9266440260801c5b60208216156125bc576fff973b41fa98c081472e6896dfb254c00260801c5b60408216156125db576fff2ea16466c96a3843ec78b326b528610260801c5b60808216156125fa576ffe5dee046a99a2a811c461f1969c30530260801c5b61010082161561261a576ffcbe86c7900a88aedcffc83b479aa3a40260801c5b61020082161561263a576ff987a7253ac413176f2b074cf7815e540260801c5b61040082161561265a576ff3392b0822b70005940c7a398e4b70f30260801c5b61080082161561267a576fe7159475a2c29b7443b29c7fa6e889d90260801c5b61100082161561269a576fd097f3bdfd2022b8845ad8f792aa58250260801c5b6120008216156126ba576fa9f746462d870fdf8a65dc1f90e061e50260801c5b6140008216156126da576f70d869a156d2a1b890bb3df62baf32f70260801c5b6180008216156126fa576f31be135f97d08fd981231505542fcfa60260801c5b6201000082161561271b576f09aa508b5b7a84e1c677de54f3e99bc90260801c5b6202000082161561273b576e5d6af8dedb81196699c329225ee6040260801c5b6204000082161561275a576d2216e584f5fa1ea926041bedfe980260801c5b62080000821615612777576b048a170391f7dc42444e8fa20260801c5b60008460020b131561279857806000198161279457612794613083565b0490505b6401000000008106156127ac5760016127af565b60005b60ff16602082901c0192505050919050565b60008080600019858709858702925082811083820303915050806000036127fa57600084116127ef57600080fd5b508290049050610bad565b80841161280657600080fd5b6000848688096000868103871696879004966002600389028118808a02820302808a02820302808a02820302808a02820302808a02820302808a02909103029181900381900460010186841190950394909402919094039290920491909117919091029150509392505050565b60006128c8826040518060400160405280602081526020017f5361666545524332303a206c6f772d6c6576656c2063616c6c206661696c6564815250856001600160a01b03166129489092919063ffffffff16565b90508051600014806128e95750808060200190518101906128e991906130f4565b6124385760405162461bcd60e51b815260206004820152602a60248201527f5361666545524332303a204552433230206f7065726174696f6e20646964206e6044820152691bdd081cdd58d8d9595960b21b6064820152608401610507565b6060610cd7848460008585600080866001600160a01b0316858760405161296f91906134d6565b60006040518083038185875af1925050503d80600081146129ac576040519150601f19603f3d011682016040523d82523d6000602084013e6129b1565b606091505b50915091506123c88783838760608315612a2c578251600003612a25576001600160a01b0385163b612a255760405162461bcd60e51b815260206004820152601d60248201527f416464726573733a2063616c6c20746f206e6f6e2d636f6e74726163740000006044820152606401610507565b5081610cd7565b610cd78383815115612a415781518083602001fd5b8060405162461bcd60e51b815260040161050791906134f2565b6040805161012081018252600080825260208201819052918101829052606081018290526080810182905260a0810182905260c0810182905260e0810182905261010081019190915290565b6001600160a01b038116811461062957600080fd5b60008060408385031215612acf57600080fd5b8235612ada81612aa7565b946020939093013593505050565b64ffffffffff808251168352806020830151166020840152806040830151166040840152506060810151612b25606084018264ffffffffff169052565b506080810151608083015260a081015160a083015260c0810151612b5460c08401826001600160701b03169052565b5060e0810151612b6860e084018215159052565b506101008181015164ffffffffff81168483015261086a565b61012081016105da8284612ae8565b634e487b7160e01b600052604160045260246000fd5b604051601f8201601f1916810167ffffffffffffffff81118282101715612bcf57612bcf612b90565b604052919050565b803564ffffffffff81168114612bec57600080fd5b919050565b600060e08284031215612c0357600080fd5b60405160e0810181811067ffffffffffffffff82111715612c2657612c26612b90565b604052612c3283612bd7565b8152612c4060208401612bd7565b6020820152612c5160408401612bd7565b6040820152612c6260608401612bd7565b60608201526080830135608082015260a083013560a082015260c0830135612c8981612aa7565b60c08201529392505050565b600060208284031215612ca757600080fd5b8135610bad81612aa7565b600060208284031215612cc457600080fd5b5035919050565b801515811461062957600080fd5b60008060408385031215612cec57600080fd5b8235612cf781612aa7565b91506020830135612d0781612ccb565b809150509250929050565b600080600060608486031215612d2757600080fd5b8335612d3281612aa7565b925060208401359150612d4760408501612bd7565b90509250925092565b600060208284031215612d6257600080fd5b813563ffffffff81168114610bad57600080fd5b60008060208385031215612d8957600080fd5b823567ffffffffffffffff80821115612da157600080fd5b818501915085601f830112612db557600080fd5b813581811115612dc457600080fd5b86602060e083028501011115612dd957600080fd5b60209290920196919550909350505050565b634e487b7160e01b600052603260045260246000fd5b602080825260159082015274105113525397d050d0d154d4d7d491545552549151605a1b604082015260600190565b6020808252600f908201526e4e4f5f4143544956455f434c41494d60881b604082015260600190565b634e487b7160e01b600052601160045260246000fd5b600082821015612e8157612e81612e59565b500390565b60008219821115612e9957612e99612e59565b500190565b6020808252600b908201526a4e6f7420466163746f727960a81b604082015260600190565b84815264ffffffffff848116602083015283548082166040840152602881901c82166060840152605081901c8216608084015260781c811660a0830152600184015460c0830152600284015460e083015260038401546001600160701b038116610100840152607081901c60ff16151561012084015261018083019190612f596101408501838360781c1664ffffffffff169052565b50508261016083015295945050505050565b600181815b80851115612fa6578160001904821115612f8c57612f8c612e59565b80851615612f9957918102915b93841c9390800290612f70565b509250929050565b600082612fbd575060016105da565b81612fca575060006105da565b8160018114612fe05760028114612fea57613006565b60019150506105da565b60ff841115612ffb57612ffb612e59565b50506001821b6105da565b5060208310610133831016604e8410600b8410161715613029575081810a6105da565b6130338383612f6b565b806000190482111561304757613047612e59565b029392505050565b6000610bad6001600160801b03841683612fae565b600081600019048311821515161561307e5761307e612e59565b500290565b634e487b7160e01b600052601260045260246000fd5b6000826130a8576130a8613083565b500490565b602080825260149082015273494e53554646494349454e545f42414c414e434560601b604082015260600190565b6000602082840312156130ed57600080fd5b5051919050565b60006020828403121561310657600080fd5b8151610bad81612ccb565b600064ffffffffff8381169083168181101561312f5761312f612e59565b039392505050565b600064ffffffffff8084168061314f5761314f613083565b92169190910692915050565b610140810161316a8285612ae8565b826101208301529392505050565b600064ffffffffff8084168061319057613190613083565b92169190910492915050565b600064ffffffffff808316818516818304811182151516156131c0576131c0612e59565b02949350505050565b6020808252825182820181905260009190848201906040850190845b8181101561320757835163ffffffff16835292840192918401916001016131e5565b50909695505050505050565b600067ffffffffffffffff82111561322d5761322d612b90565b5060051b60200190565b600082601f83011261324857600080fd5b8151602061325d61325883613213565b612ba6565b82815260059290921b8401810191818101908684111561327c57600080fd5b8286015b848110156132a057805161329381612aa7565b8352918301918301613280565b509695505050505050565b600080604083850312156132be57600080fd5b825167ffffffffffffffff808211156132d657600080fd5b818501915085601f8301126132ea57600080fd5b815160206132fa61325883613213565b82815260059290921b8401810191818101908984111561331957600080fd5b948201945b838610156133475785518060060b81146133385760008081fd5b8252948201949082019061331e565b9188015191965090935050508082111561336057600080fd5b5061336d85828601613237565b9150509250929050565b60008160060b8360060b6000811281667fffffffffffff19018312811516156133a2576133a2612e59565b81667fffffffffffff0183138116156133bd576133bd612e59565b5090039392505050565b60006001600160a01b038381169083168181101561312f5761312f612e59565b60008160060b8360060b806133fe576133fe613083565b667fffffffffffff1982146000198214161561341c5761341c612e59565b90059392505050565b60008260060b8061343857613438613083565b808360060b0791505092915050565b60008160020b627fffff19810361346057613460612e59565b6000190192915050565b60006001600160c01b03828116848216811515828404821116156131c0576131c0612e59565b60006001600160c01b038381168061319057613190613083565b60005b838110156134c55781810151838201526020016134ad565b8381111561086a5750506000910152565b600082516134e88184602087016134aa565b9190910192915050565b60208152600082518060208401526135118160408501602087016134aa565b601f01601f1916919091016040019291505056fea26469706673582212200f9cc74328c7562f594726c73ac5b9a622f45675d58fa75f5c9bdd447a9940ae64736f6c634300080e0033a2646970667358221220d56cc44775c60d64d4859c642716ed6760015a4fa240a9137bb780819b17fbd464736f6c634300080e0033",
  "linkReferences": {},
  "deployedLinkReferences": {}
}