{
  "_format": "hh-sol-artifact-1",
  "contractName": "VariableSupplyERC20Token",
  "sourceName": "contracts/token/VariableSupplyERC20Token.sol",
  "abi": [
    {
      "inputs": [
        {
          "internalType": "string",
          "name": "name_",
          "type": "string"
        },
        {
          "internalType": "string",
          "name": "symbol_",
          "type": "string"
        },
        {
          "internalType": "uint256",
          "name": "initialSupply_",
          "type": "uint256"
        },
        {
          "internalType": "uint256",
          "name": "maxSupply_",
          "type": "uint256"
        },
        {
          "internalType": "bool",
          "name": "burnable_",
          "type": "bool"
        }
      ],
      "stateMutability": "nonpayable",
      "type": "constructor"
    },
    {
      "anonymous": false,
      "inputs": [
        {
          "indexed": true,
          "internalType": "address",
          "name": "_admin",
          "type": "address"
        },
        {
          "indexed": false,
          "internalType": "bool",
          "name": "_enabled",
          "type": "bool"
        }
      ],
      "name": "AdminAccessSet",
      "type": "event"
    },
    {
      "anonymous": false,
      "inputs": [
        {
          "indexed": true,
          "internalType": "address",
          "name": "owner",
          "type": "address"
        },
        {
          "indexed": true,
          "internalType": "address",
          "name": "spender",
          "type": "address"
        },
        {
          "indexed": false,
          "internalType": "uint256",
          "name": "value",
          "type": "uint256"
        }
      ],
      "name": "Approval",
      "type": "event"
    },
    {
      "anonymous": false,
      "inputs": [
        {
          "indexed": true,
          "internalType": "address",
          "name": "from",
          "type": "address"
        },
        {
          "indexed": true,
          "internalType": "address",
          "name": "to",
          "type": "address"
        },
        {
          "indexed": false,
          "internalType": "uint256",
          "name": "value",
          "type": "uint256"
        }
      ],
      "name": "Transfer",
      "type": "event"
    },
    {
      "inputs": [
        {
          "internalType": "address",
          "name": "owner",
          "type": "address"
        },
        {
          "internalType": "address",
          "name": "spender",
          "type": "address"
        }
      ],
      "name": "allowance",
      "outputs": [
        {
          "internalType": "uint256",
          "name": "",
          "type": "uint256"
        }
      ],
      "stateMutability": "view",
      "type": "function"
    },
    {
      "inputs": [
        {
          "internalType": "address",
          "name": "spender",
          "type": "address"
        },
        {
          "internalType": "uint256",
          "name": "amount",
          "type": "uint256"
        }
      ],
      "name": "approve",
      "outputs": [
        {
          "internalType": "bool",
          "name": "",
          "type": "bool"
        }
      ],
      "stateMutability": "nonpayable",
      "type": "function"
    },
    {
      "inputs": [
        {
          "internalType": "address",
          "name": "account",
          "type": "address"
        }
      ],
      "name": "balanceOf",
      "outputs": [
        {
          "internalType": "uint256",
          "name": "",
          "type": "uint256"
        }
      ],
      "stateMutability": "view",
      "type": "function"
    },
    {
      "inputs": [
        {
          "internalType": "uint256",
          "name": "amount",
          "type": "uint256"
        }
      ],
      "name": "burn",
      "outputs": [],
      "stateMutability": "nonpayable",
      "type": "function"
    },
    {
      "inputs": [],
      "name": "burnable",
      "outputs": [
        {
          "internalType": "bool",
          "name": "",
          "type": "bool"
        }
      ],
      "stateMutability": "view",
      "type": "function"
    },
    {
      "inputs": [],
      "name": "burntSupply",
      "outputs": [
        {
          "internalType": "uint256",
          "name": "",
          "type": "uint256"
        }
      ],
      "stateMutability": "view",
      "type": "function"
    },
    {
      "inputs": [],
      "name": "decimals",
      "outputs": [
        {
          "internalType": "uint8",
          "name": "",
          "type": "uint8"
        }
      ],
      "stateMutability": "view",
      "type": "function"
    },
    {
      "inputs": [
        {
          "internalType": "address",
          "name": "spender",
          "type": "address"
        },
        {
          "internalType": "uint256",
          "name": "subtractedValue",
          "type": "uint256"
        }
      ],
      "name": "decreaseAllowance",
      "outputs": [
        {
          "internalType": "bool",
          "name": "",
          "type": "bool"
        }
      ],
      "stateMutability": "nonpayable",
      "type": "function"
    },
    {
      "inputs": [
        {
          "internalType": "address",
          "name": "spender",
          "type": "address"
        },
        {
          "internalType": "uint256",
          "name": "addedValue",
          "type": "uint256"
        }
      ],
      "name": "increaseAllowance",
      "outputs": [
        {
          "internalType": "bool",
          "name": "",
          "type": "bool"
        }
      ],
      "stateMutability": "nonpayable",
      "type": "function"
    },
    {
      "inputs": [
        {
          "internalType": "address",
          "name": "_addressToCheck",
          "type": "address"
        }
      ],
      "name": "isAdmin",
      "outputs": [
        {
          "internalType": "bool",
          "name": "",
          "type": "bool"
        }
      ],
      "stateMutability": "view",
      "type": "function"
    },
    {
      "inputs": [
        {
          "internalType": "address",
          "name": "account",
          "type": "address"
        },
        {
          "internalType": "uint256",
          "name": "amount",
          "type": "uint256"
        }
      ],
      "name": "mint",
      "outputs": [],
      "stateMutability": "nonpayable",
      "type": "function"
    },
    {
      "inputs": [],
      "name": "mintableSupply",
      "outputs": [
        {
          "internalType": "uint256",
          "name": "",
          "type": "uint256"
        }
      ],
      "stateMutability": "view",
      "type": "function"
    },
    {
      "inputs": [],
      "name": "name",
      "outputs": [
        {
          "internalType": "string",
          "name": "",
          "type": "string"
        }
      ],
      "stateMutability": "view",
      "type": "function"
    },
    {
      "inputs": [
        {
          "internalType": "address",
          "name": "admin",
          "type": "address"
        },
        {
          "internalType": "bool",
          "name": "isEnabled",
          "type": "bool"
        }
      ],
      "name": "setAdmin",
      "outputs": [],
      "stateMutability": "nonpayable",
      "type": "function"
    },
    {
      "inputs": [],
      "name": "symbol",
      "outputs": [
        {
          "internalType": "string",
          "name": "",
          "type": "string"
        }
      ],
      "stateMutability": "view",
      "type": "function"
    },
    {
      "inputs": [],
      "name": "totalSupply",
      "outputs": [
        {
          "internalType": "uint256",
          "name": "",
          "type": "uint256"
        }
      ],
      "stateMutability": "view",
      "type": "function"
    },
    {
      "inputs": [
        {
          "internalType": "address",
          "name": "to",
          "type": "address"
        },
        {
          "internalType": "uint256",
          "name": "amount",
          "type": "uint256"
        }
      ],
      "name": "transfer",
      "outputs": [
        {
          "internalType": "bool",
          "name": "",
          "type": "bool"
        }
      ],
      "stateMutability": "nonpayable",
      "type": "function"
    },
    {
      "inputs": [
        {
          "internalType": "address",
          "name": "from",
          "type": "address"
        },
        {
          "internalType": "address",
          "name": "to",
          "type": "address"
        },
        {
          "internalType": "uint256",
          "name": "amount",
          "type": "uint256"
        }
      ],
      "name": "transferFrom",
      "outputs": [
        {
          "internalType": "bool",
          "name": "",
          "type": "bool"
        }
      ],
      "stateMutability": "nonpayable",
      "type": "function"
    }
  ],
  "bytecode": "0x60806040523480156200001157600080fd5b5060405162001442380380620014428339810160408190526200003491620004d8565b8451859085906200004d90600390602085019062000365565b5080516200006390600490602084019062000365565b5050506001600560006200007c6200017960201b60201c565b6001600160a01b031681526020810191909152604001600020805460ff1916911515919091179055620000ac3390565b6001600160a01b03167fe529461c8529abc0e0fe7c5ee361f74fe22e0b7574df1fc0b7558a282091fb786001604051620000ea911515815260200190565b60405180910390a26000831180620001025750600082115b620001455760405162461bcd60e51b815260206004820152600e60248201526d1253959053125117d05353d5539560921b60448201526064015b60405180910390fd5b600682905582156200015d576200015d33846200017d565b6007805460ff191691151591909117905550620005f792505050565b3390565b3360009081526005602052604090205460ff16620001de5760405162461bcd60e51b815260206004820152601560248201527f41444d494e5f4143434553535f5245515549524544000000000000000000000060448201526064016200013c565b6001600160a01b038216620002285760405162461bcd60e51b815260206004820152600f60248201526e494e56414c49445f4144445245535360881b60448201526064016200013c565b600654156200029057600654811115620002765760405162461bcd60e51b815260206004820152600e60248201526d1253959053125117d05353d5539560921b60448201526064016200013c565b80600660008282546200028a919062000586565b90915550505b6200029c8282620002a0565b5050565b6001600160a01b038216620002f85760405162461bcd60e51b815260206004820152601f60248201527f45524332303a206d696e7420746f20746865207a65726f20616464726573730060448201526064016200013c565b80600260008282546200030c9190620005a0565b90915550506001600160a01b038216600081815260208181526040808320805486019055518481527fddf252ad1be2c89b69c2b068fc378daa952ba7f163c4a11628f55a4df523b3ef910160405180910390a36200029c565b8280546200037390620005bb565b90600052602060002090601f016020900481019282620003975760008555620003e2565b82601f10620003b257805160ff1916838001178555620003e2565b82800160010185558215620003e2579182015b82811115620003e2578251825591602001919060010190620003c5565b50620003f0929150620003f4565b5090565b5b80821115620003f05760008155600101620003f5565b634e487b7160e01b600052604160045260246000fd5b600082601f8301126200043357600080fd5b81516001600160401b03808211156200045057620004506200040b565b604051601f8301601f19908116603f011681019082821181831017156200047b576200047b6200040b565b816040528381526020925086838588010111156200049857600080fd5b600091505b83821015620004bc57858201830151818301840152908201906200049d565b83821115620004ce5760008385830101525b9695505050505050565b600080600080600060a08688031215620004f157600080fd5b85516001600160401b03808211156200050957600080fd5b6200051789838a0162000421565b965060208801519150808211156200052e57600080fd5b506200053d8882890162000421565b9450506040860151925060608601519150608086015180151581146200056257600080fd5b809150509295509295909350565b634e487b7160e01b600052601160045260246000fd5b6000828210156200059b576200059b62000570565b500390565b60008219821115620005b657620005b662000570565b500190565b600181811c90821680620005d057607f821691505b602082108103620005f157634e487b7160e01b600052602260045260246000fd5b50919050565b610e3b80620006076000396000f3fe608060405234801561001057600080fd5b50600436106101165760003560e01c80634b0bddd2116100a2578063a07c7ce411610071578063a07c7ce414610244578063a457c2d714610251578063a9059cbb14610264578063cc5c095c14610277578063dd62ed3e1461028057600080fd5b80634b0bddd2146101f7578063561045291461020a57806370a082311461021357806395d89b411461023c57600080fd5b806324d7806c116100e957806324d7806c14610181578063313ce567146101ad57806339509351146101bc57806340c10f19146101cf57806342966c68146101e457600080fd5b806306fdde031461011b578063095ea7b31461013957806318160ddd1461015c57806323b872dd1461016e575b600080fd5b610123610293565b6040516101309190610bd6565b60405180910390f35b61014c610147366004610c47565b610325565b6040519015158152602001610130565b6002545b604051908152602001610130565b61014c61017c366004610c71565b61033d565b61014c61018f366004610cad565b6001600160a01b031660009081526005602052604090205460ff1690565b60405160128152602001610130565b61014c6101ca366004610c47565b610361565b6101e26101dd366004610c47565b610383565b005b6101e26101f2366004610ccf565b610474565b6101e2610205366004610ce8565b610511565b61016060085481565b610160610221366004610cad565b6001600160a01b031660009081526020819052604090205490565b6101236105e7565b60075461014c9060ff1681565b61014c61025f366004610c47565b6105f6565b61014c610272366004610c47565b610671565b61016060065481565b61016061028e366004610d24565b61067f565b6060600380546102a290610d57565b80601f01602080910402602001604051908101604052809291908181526020018280546102ce90610d57565b801561031b5780601f106102f05761010080835404028352916020019161031b565b820191906000526020600020905b8154815290600101906020018083116102fe57829003601f168201915b5050505050905090565b6000336103338185856106aa565b5060019392505050565b60003361034b8582856107cf565b610356858585610849565b506001949350505050565b600033610333818585610374838361067f565b61037e9190610da7565b6106aa565b3360009081526005602052604090205460ff166103bb5760405162461bcd60e51b81526004016103b290610dbf565b60405180910390fd5b6001600160a01b0382166104035760405162461bcd60e51b815260206004820152600f60248201526e494e56414c49445f4144445245535360881b60448201526064016103b2565b600654156104665760065481111561044e5760405162461bcd60e51b815260206004820152600e60248201526d1253959053125117d05353d5539560921b60448201526064016103b2565b80600660008282546104609190610dee565b90915550505b61047082826109ed565b5050565b3360009081526005602052604090205460ff166104a35760405162461bcd60e51b81526004016103b290610dbf565b60075460ff166104ed5760405162461bcd60e51b81526020600482015260156024820152742737ba1030bb30b4b630b13632903a3790313ab93760591b60448201526064016103b2565b6104f73382610aac565b80600860008282546105099190610da7565b909155505050565b3360009081526005602052604090205460ff166105405760405162461bcd60e51b81526004016103b290610dbf565b6001600160a01b0382166105885760405162461bcd60e51b815260206004820152600f60248201526e494e56414c49445f4144445245535360881b60448201526064016103b2565b6001600160a01b038216600081815260056020908152604091829020805460ff191685151590811790915591519182527fe529461c8529abc0e0fe7c5ee361f74fe22e0b7574df1fc0b7558a282091fb78910160405180910390a25050565b6060600480546102a290610d57565b60003381610604828661067f565b9050838110156106645760405162461bcd60e51b815260206004820152602560248201527f45524332303a2064656372656173656420616c6c6f77616e63652062656c6f77604482015264207a65726f60d81b60648201526084016103b2565b61035682868684036106aa565b600033610333818585610849565b6001600160a01b03918216600090815260016020908152604080832093909416825291909152205490565b6001600160a01b03831661070c5760405162461bcd60e51b8152602060048201526024808201527f45524332303a20617070726f76652066726f6d20746865207a65726f206164646044820152637265737360e01b60648201526084016103b2565b6001600160a01b03821661076d5760405162461bcd60e51b815260206004820152602260248201527f45524332303a20617070726f766520746f20746865207a65726f206164647265604482015261737360f01b60648201526084016103b2565b6001600160a01b0383811660008181526001602090815260408083209487168084529482529182902085905590518481527f8c5be1e5ebec7d5bd14f71427d1e84f3dd0314c0f7b2291e5b200ac8c7c3b92591015b60405180910390a3505050565b60006107db848461067f565b9050600019811461084357818110156108365760405162461bcd60e51b815260206004820152601d60248201527f45524332303a20696e73756666696369656e7420616c6c6f77616e636500000060448201526064016103b2565b61084384848484036106aa565b50505050565b6001600160a01b0383166108ad5760405162461bcd60e51b815260206004820152602560248201527f45524332303a207472616e736665722066726f6d20746865207a65726f206164604482015264647265737360d81b60648201526084016103b2565b6001600160a01b03821661090f5760405162461bcd60e51b815260206004820152602360248201527f45524332303a207472616e7366657220746f20746865207a65726f206164647260448201526265737360e81b60648201526084016103b2565b6001600160a01b038316600090815260208190526040902054818110156109875760405162461bcd60e51b815260206004820152602660248201527f45524332303a207472616e7366657220616d6f756e7420657863656564732062604482015265616c616e636560d01b60648201526084016103b2565b6001600160a01b03848116600081815260208181526040808320878703905593871680835291849020805487019055925185815290927fddf252ad1be2c89b69c2b068fc378daa952ba7f163c4a11628f55a4df523b3ef910160405180910390a3610843565b6001600160a01b038216610a435760405162461bcd60e51b815260206004820152601f60248201527f45524332303a206d696e7420746f20746865207a65726f20616464726573730060448201526064016103b2565b8060026000828254610a559190610da7565b90915550506001600160a01b038216600081815260208181526040808320805486019055518481527fddf252ad1be2c89b69c2b068fc378daa952ba7f163c4a11628f55a4df523b3ef910160405180910390a35050565b6001600160a01b038216610b0c5760405162461bcd60e51b815260206004820152602160248201527f45524332303a206275726e2066726f6d20746865207a65726f206164647265736044820152607360f81b60648201526084016103b2565b6001600160a01b03821660009081526020819052604090205481811015610b805760405162461bcd60e51b815260206004820152602260248201527f45524332303a206275726e20616d6f756e7420657863656564732062616c616e604482015261636560f01b60648201526084016103b2565b6001600160a01b0383166000818152602081815260408083208686039055600280548790039055518581529192917fddf252ad1be2c89b69c2b068fc378daa952ba7f163c4a11628f55a4df523b3ef91016107c2565b600060208083528351808285015260005b81811015610c0357858101830151858201604001528201610be7565b81811115610c15576000604083870101525b50601f01601f1916929092016040019392505050565b80356001600160a01b0381168114610c4257600080fd5b919050565b60008060408385031215610c5a57600080fd5b610c6383610c2b565b946020939093013593505050565b600080600060608486031215610c8657600080fd5b610c8f84610c2b565b9250610c9d60208501610c2b565b9150604084013590509250925092565b600060208284031215610cbf57600080fd5b610cc882610c2b565b9392505050565b600060208284031215610ce157600080fd5b5035919050565b60008060408385031215610cfb57600080fd5b610d0483610c2b565b915060208301358015158114610d1957600080fd5b809150509250929050565b60008060408385031215610d3757600080fd5b610d4083610c2b565b9150610d4e60208401610c2b565b90509250929050565b600181811c90821680610d6b57607f821691505b602082108103610d8b57634e487b7160e01b600052602260045260246000fd5b50919050565b634e487b7160e01b600052601160045260246000fd5b60008219821115610dba57610dba610d91565b500190565b602080825260159082015274105113525397d050d0d154d4d7d491545552549151605a1b604082015260600190565b600082821015610e0057610e00610d91565b50039056fea2646970667358221220b853a6c41bd289303eef520f008122373bef8117e3b4dc8db4df46ce6b6c3a3964736f6c634300080e0033",
  "linkReferences": {},
  "deployedLinkReferences": {}
}