{
  "_format": "hh-sol-artifact-1",
  "contractName": "VTVLVesting",
  "sourceName": "contracts/VTVLVesting.sol",
  "abi": [
    {
      "inputs": [
        {
          "internalType": "contract IERC20",
          "name": "_tokenAddress",
          "type": "address"
        }
      ],
      "stateMutability": "nonpayable",
      "type": "constructor"
    },
    {
      "anonymous": false,
      "inputs": [
        {
          "indexed": true,
          "internalType": "address",
          "name": "_admin",
          "type": "address"
        },
        {
          "indexed": false,
          "internalType": "bool",
          "name": "_enabled",
          "type": "bool"
        }
      ],
      "name": "AdminAccessSet",
      "type": "event"
    },
    {
      "anonymous": false,
      "inputs": [
        {
          "indexed": true,
          "internalType": "address",
          "name": "_recipient",
          "type": "address"
        },
        {
          "indexed": false,
          "internalType": "uint256",
          "name": "_amountRequested",
          "type": "uint256"
        }
      ],
      "name": "AdminWithdrawn",
      "type": "event"
    },
    {
      "anonymous": false,
      "inputs": [
        {
          "indexed": true,
          "internalType": "address",
          "name": "_recipient",
          "type": "address"
        },
        {
          "components": [
            {
              "internalType": "uint40",
              "name": "startTimestamp",
              "type": "uint40"
            },
            {
              "internalType": "uint40",
              "name": "endTimestamp",
              "type": "uint40"
            },
            {
              "internalType": "uint40",
              "name": "cliffReleaseTimestamp",
              "type": "uint40"
            },
            {
              "internalType": "uint40",
              "name": "releaseIntervalSecs",
              "type": "uint40"
            },
            {
              "internalType": "uint256",
              "name": "linearVestAmount",
              "type": "uint256"
            },
            {
              "internalType": "uint256",
              "name": "amountWithdrawn",
              "type": "uint256"
            },
            {
              "internalType": "uint112",
              "name": "cliffAmount",
              "type": "uint112"
            },
            {
              "internalType": "bool",
              "name": "isActive",
              "type": "bool"
            }
          ],
          "indexed": false,
          "internalType": "struct VTVLVesting.Claim",
          "name": "_claim",
          "type": "tuple"
        }
      ],
      "name": "ClaimCreated",
      "type": "event"
    },
    {
      "anonymous": false,
      "inputs": [
        {
          "indexed": true,
          "internalType": "address",
          "name": "_recipient",
          "type": "address"
        },
        {
          "indexed": false,
          "internalType": "uint256",
          "name": "_numTokensWithheld",
          "type": "uint256"
        },
        {
          "indexed": false,
          "internalType": "uint256",
          "name": "revocationTimestamp",
          "type": "uint256"
        },
        {
          "components": [
            {
              "internalType": "uint40",
              "name": "startTimestamp",
              "type": "uint40"
            },
            {
              "internalType": "uint40",
              "name": "endTimestamp",
              "type": "uint40"
            },
            {
              "internalType": "uint40",
              "name": "cliffReleaseTimestamp",
              "type": "uint40"
            },
            {
              "internalType": "uint40",
              "name": "releaseIntervalSecs",
              "type": "uint40"
            },
            {
              "internalType": "uint256",
              "name": "linearVestAmount",
              "type": "uint256"
            },
            {
              "internalType": "uint256",
              "name": "amountWithdrawn",
              "type": "uint256"
            },
            {
              "internalType": "uint112",
              "name": "cliffAmount",
              "type": "uint112"
            },
            {
              "internalType": "bool",
              "name": "isActive",
              "type": "bool"
            }
          ],
          "indexed": false,
          "internalType": "struct VTVLVesting.Claim",
          "name": "_claim",
          "type": "tuple"
        }
      ],
      "name": "ClaimRevoked",
      "type": "event"
    },
    {
      "anonymous": false,
      "inputs": [
        {
          "indexed": true,
          "internalType": "address",
          "name": "_recipient",
          "type": "address"
        },
        {
          "indexed": false,
          "internalType": "uint256",
          "name": "_withdrawalAmount",
          "type": "uint256"
        }
      ],
      "name": "Claimed",
      "type": "event"
    },
    {
      "inputs": [],
      "name": "allVestingRecipients",
      "outputs": [
        {
          "internalType": "address[]",
          "name": "",
          "type": "address[]"
        }
      ],
      "stateMutability": "view",
      "type": "function"
    },
    {
      "inputs": [],
      "name": "amountAvailableToWithdrawByAdmin",
      "outputs": [
        {
          "internalType": "uint256",
          "name": "",
          "type": "uint256"
        }
      ],
      "stateMutability": "view",
      "type": "function"
    },
    {
      "inputs": [
        {
          "internalType": "address",
          "name": "_recipient",
          "type": "address"
        }
      ],
      "name": "claimableAmount",
      "outputs": [
        {
          "internalType": "uint256",
          "name": "",
          "type": "uint256"
        }
      ],
      "stateMutability": "view",
      "type": "function"
    },
    {
      "inputs": [
        {
          "internalType": "address",
          "name": "_recipient",
          "type": "address"
        },
        {
          "internalType": "uint40",
          "name": "_startTimestamp",
          "type": "uint40"
        },
        {
          "internalType": "uint40",
          "name": "_endTimestamp",
          "type": "uint40"
        },
        {
          "internalType": "uint40",
          "name": "_cliffReleaseTimestamp",
          "type": "uint40"
        },
        {
          "internalType": "uint40",
          "name": "_releaseIntervalSecs",
          "type": "uint40"
        },
        {
          "internalType": "uint112",
          "name": "_linearVestAmount",
          "type": "uint112"
        },
        {
          "internalType": "uint112",
          "name": "_cliffAmount",
          "type": "uint112"
        }
      ],
      "name": "createClaim",
      "outputs": [],
      "stateMutability": "nonpayable",
      "type": "function"
    },
    {
      "inputs": [
        {
          "internalType": "address[]",
          "name": "_recipients",
          "type": "address[]"
        },
        {
          "internalType": "uint40[]",
          "name": "_startTimestamps",
          "type": "uint40[]"
        },
        {
          "internalType": "uint40[]",
          "name": "_endTimestamps",
          "type": "uint40[]"
        },
        {
          "internalType": "uint40[]",
          "name": "_cliffReleaseTimestamps",
          "type": "uint40[]"
        },
        {
          "internalType": "uint40[]",
          "name": "_releaseIntervalsSecs",
          "type": "uint40[]"
        },
        {
          "internalType": "uint112[]",
          "name": "_linearVestAmounts",
          "type": "uint112[]"
        },
        {
          "internalType": "uint112[]",
          "name": "_cliffAmounts",
          "type": "uint112[]"
        }
      ],
      "name": "createClaimsBatch",
      "outputs": [],
      "stateMutability": "nonpayable",
      "type": "function"
    },
    {
      "inputs": [
        {
          "internalType": "address",
          "name": "_recipient",
          "type": "address"
        }
      ],
      "name": "finalVestedAmount",
      "outputs": [
        {
          "internalType": "uint256",
          "name": "",
          "type": "uint256"
        }
      ],
      "stateMutability": "view",
      "type": "function"
    },
    {
      "inputs": [
        {
          "internalType": "address",
          "name": "_recipient",
          "type": "address"
        }
      ],
      "name": "getClaim",
      "outputs": [
        {
          "components": [
            {
              "internalType": "uint40",
              "name": "startTimestamp",
              "type": "uint40"
            },
            {
              "internalType": "uint40",
              "name": "endTimestamp",
              "type": "uint40"
            },
            {
              "internalType": "uint40",
              "name": "cliffReleaseTimestamp",
              "type": "uint40"
            },
            {
              "internalType": "uint40",
              "name": "releaseIntervalSecs",
              "type": "uint40"
            },
            {
              "internalType": "uint256",
              "name": "linearVestAmount",
              "type": "uint256"
            },
            {
              "internalType": "uint256",
              "name": "amountWithdrawn",
              "type": "uint256"
            },
            {
              "internalType": "uint112",
              "name": "cliffAmount",
              "type": "uint112"
            },
            {
              "internalType": "bool",
              "name": "isActive",
              "type": "bool"
            }
          ],
          "internalType": "struct VTVLVesting.Claim",
          "name": "",
          "type": "tuple"
        }
      ],
      "stateMutability": "view",
      "type": "function"
    },
    {
      "inputs": [
        {
          "internalType": "address",
          "name": "_addressToCheck",
          "type": "address"
        }
      ],
      "name": "isAdmin",
      "outputs": [
        {
          "internalType": "bool",
          "name": "",
          "type": "bool"
        }
      ],
      "stateMutability": "view",
      "type": "function"
    },
    {
      "inputs": [],
      "name": "numTokensReservedForVesting",
      "outputs": [
        {
          "internalType": "uint256",
          "name": "",
          "type": "uint256"
        }
      ],
      "stateMutability": "view",
      "type": "function"
    },
    {
      "inputs": [],
      "name": "numVestingRecipients",
      "outputs": [
        {
          "internalType": "uint256",
          "name": "",
          "type": "uint256"
        }
      ],
      "stateMutability": "view",
      "type": "function"
    },
    {
      "inputs": [
        {
          "internalType": "address",
          "name": "_recipient",
          "type": "address"
        }
      ],
      "name": "revokeClaim",
      "outputs": [],
      "stateMutability": "nonpayable",
      "type": "function"
    },
    {
      "inputs": [
        {
          "internalType": "address",
          "name": "admin",
          "type": "address"
        },
        {
          "internalType": "bool",
          "name": "isEnabled",
          "type": "bool"
        }
      ],
      "name": "setAdmin",
      "outputs": [],
      "stateMutability": "nonpayable",
      "type": "function"
    },
    {
      "inputs": [],
      "name": "tokenAddress",
      "outputs": [
        {
          "internalType": "contract IERC20",
          "name": "",
          "type": "address"
        }
      ],
      "stateMutability": "view",
      "type": "function"
    },
    {
      "inputs": [
        {
          "internalType": "address",
          "name": "_recipient",
          "type": "address"
        },
        {
          "internalType": "uint40",
          "name": "_referenceTs",
          "type": "uint40"
        }
      ],
      "name": "vestedAmount",
      "outputs": [
        {
          "internalType": "uint256",
          "name": "",
          "type": "uint256"
        }
      ],
      "stateMutability": "view",
      "type": "function"
    },
    {
      "inputs": [],
      "name": "withdraw",
      "outputs": [],
      "stateMutability": "nonpayable",
      "type": "function"
    },
    {
      "inputs": [
        {
          "internalType": "uint256",
          "name": "_amountRequested",
          "type": "uint256"
        }
      ],
      "name": "withdrawAdmin",
      "outputs": [],
      "stateMutability": "nonpayable",
      "type": "function"
    },
    {
      "inputs": [
        {
          "internalType": "contract IERC20",
          "name": "_otherTokenAddress",
          "type": "address"
        }
      ],
      "name": "withdrawOtherToken",
      "outputs": [],
      "stateMutability": "nonpayable",
      "type": "function"
    }
  ],
  "bytecode": "0x60a060405260006002553480156200001657600080fd5b506040516200228d3803806200228d8339810160408190526200003991620000fc565b336000818152602081905260409020805460ff191660011790556001600160a01b03167fe529461c8529abc0e0fe7c5ee361f74fe22e0b7574df1fc0b7558a282091fb78600160405162000091911515815260200190565b60405180910390a2600180556001600160a01b038116620000ea5760405162461bcd60e51b815260206004820152600f60248201526e494e56414c49445f4144445245535360881b604482015260640160405180910390fd5b6001600160a01b03166080526200012e565b6000602082840312156200010f57600080fd5b81516001600160a01b03811681146200012757600080fd5b9392505050565b6080516121206200016d600039600081816102ea0152818161066001528181610bd101528181610c9d01528181610dcb01526114bd01526121206000f3fe608060405234801561001057600080fd5b506004361061010b5760003560e01c80637197dec3116100a2578063ae9741aa11610071578063ae9741aa14610324578063d77836ce14610337578063e50373f91461034a578063e865fbc71461035d578063ed83a4b21461036557600080fd5b80637197dec3146102aa578063852e72e9146102bf57806389885049146102d25780639d76ea58146102e557600080fd5b80633ccfd60b116100de5780633ccfd60b146101855780634a0e701e1461018d5780634b0bddd2146101a05780634cd3723a146101b357600080fd5b80630216ee4114610110578063137c68fa14610125578063241c5b1f1461014157806324d7806c14610149575b600080fd5b61012361011e366004611863565b610378565b005b61012e60025481565b6040519081526020015b60405180910390f35b60045461012e565b610175610157366004611863565b6001600160a01b031660009081526020819052604090205460ff1690565b6040519015158152602001610138565b610123610518565b61012e61019b36600461189a565b6106cf565b6101236101ae3660046118dd565b61077b565b61029d6101c1366004611863565b6040805161010081018252600080825260208201819052918101829052606081018290526080810182905260a0810182905260c0810182905260e0810191909152506001600160a01b0316600090815260036020818152604092839020835161010081018552815464ffffffffff8082168352600160281b8204811694830194909452600160501b8104841695820195909552600160781b909404909116606084015260018101546080840152600281015460a084015201546001600160701b03811660c0830152600160701b900460ff16151560e082015290565b6040516101389190611916565b6102b261084f565b6040516101389190611999565b6101236102cd3660046119fd565b6108b1565b61012e6102e0366004611863565b6108f8565b61030c7f000000000000000000000000000000000000000000000000000000000000000081565b6040516001600160a01b039091168152602001610138565b610123610332366004611c28565b6109af565b610123610345366004611d43565b610b4a565b610123610358366004611863565b610c3d565b61012e610da7565b61012e610373366004611863565b610e45565b3360009081526020819052604090205460ff166103b05760405162461bcd60e51b81526004016103a790611d5c565b60405180910390fd5b6001600160a01b0381166000908152600360205260409020805482919064ffffffffff166103f05760405162461bcd60e51b81526004016103a790611d8b565b6003810154600160701b900460ff1615156001146104205760405162461bcd60e51b81526004016103a790611d8b565b6001600160a01b03831660009081526003602052604081209061044285610e45565b90508082600201541061048c5760405162461bcd60e51b81526020600482015260126024820152711393d7d553959154d5115117d05353d5539560721b60448201526064016103a7565b600082600201548261049e9190611dca565b60038401805460ff60701b191690556002805491925082916000906104c4908490611dca565b92505081905550856001600160a01b03167f46f409062a066ac455ca53f1e42789fbf32a458e852135dc7003b328f75d923882428660405161050893929190611e49565b60405180910390a2505050505050565b336000818152600360205260409020805464ffffffffff1661054c5760405162461bcd60e51b81526004016103a790611d8b565b6003810154600160701b900460ff16151560011461057c5760405162461bcd60e51b81526004016103a790611d8b565b60026001540361059e5760405162461bcd60e51b81526004016103a790611e6b565b6002600155336000818152600360205260408120916105bd90426106cf565b90508160020154811180156105d25750600081115b6106145760405162461bcd60e51b81526020600482015260136024820152724e4f5448494e475f544f5f574954484452415760681b60448201526064016103a7565b60008260020154826106269190611dca565b90508083600201600082825461063c9190611ea2565b9250508190555080600260008282546106559190611dca565b9091555061068f90507f00000000000000000000000000000000000000000000000000000000000000006001600160a01b03163383610ee7565b60405181815233907fd8138f8a3f377c5259ca548e70e4c2de94f129f5a11036a15b69513cba2b426a9060200160405180910390a2505060018055505050565b6001600160a01b0382166000908152600360208181526040808420815161010081018352815464ffffffffff8082168352600160281b8204811695830195909552600160501b8104851693820193909352600160781b909204909216606082015260018201546080820152600282015460a08201529101546001600160701b03811660c0830152600160701b900460ff16151560e08201526107718184610f3e565b9150505b92915050565b3360009081526020819052604090205460ff166107aa5760405162461bcd60e51b81526004016103a790611d5c565b6001600160a01b0382166107f25760405162461bcd60e51b815260206004820152600f60248201526e494e56414c49445f4144445245535360881b60448201526064016103a7565b6001600160a01b03821660008181526020818152604091829020805460ff191685151590811790915591519182527fe529461c8529abc0e0fe7c5ee361f74fe22e0b7574df1fc0b7558a282091fb78910160405180910390a25050565b606060048054806020026020016040519081016040528092919081815260200182805480156108a757602002820191906000526020600020905b81546001600160a01b03168152600190910190602001808311610889575b5050505050905090565b3360009081526020819052604090205460ff166108e05760405162461bcd60e51b81526004016103a790611d5c565b6108ef87878787878787611054565b50505050505050565b6001600160a01b0381166000908152600360208181526040808420815161010081018352815464ffffffffff8082168352600160281b8204811695830195909552600160501b8104851693820193909352600160781b909204909216606082015260018201546080820152600282015460a0820181905291909201546001600160701b03811660c0840152600160701b900460ff16151560e083015261099e8242610f3e565b6109a89190611dca565b9392505050565b3360009081526020819052604090205460ff166109de5760405162461bcd60e51b81526004016103a790611d5c565b86518651811480156109f05750808651145b80156109fc5750808551145b8015610a085750808451145b8015610a145750808351145b8015610a205750808251145b610a645760405162461bcd60e51b8152602060048201526015602482015274082a4a482b2be988a9c8ea890be9a92a69a82a8869605b1b60448201526064016103a7565b60005b81811015610b3f57610b2d898281518110610a8457610a84611eba565b6020026020010151898381518110610a9e57610a9e611eba565b6020026020010151898481518110610ab857610ab8611eba565b6020026020010151898581518110610ad257610ad2611eba565b6020026020010151898681518110610aec57610aec611eba565b6020026020010151898781518110610b0657610b06611eba565b6020026020010151898881518110610b2057610b20611eba565b6020026020010151611054565b80610b3781611ed0565b915050610a67565b505050505050505050565b3360009081526020819052604090205460ff16610b795760405162461bcd60e51b81526004016103a790611d5c565b600260015403610b9b5760405162461bcd60e51b81526004016103a790611e6b565b60026001556000610baa610da7565b905081811015610bcc5760405162461bcd60e51b81526004016103a790611ee9565b610c007f00000000000000000000000000000000000000000000000000000000000000006001600160a01b03163384610ee7565b60405182815233907fca1cf43de312865665f595e88f569f9d5246690c07df26e86aba01147e6d13149060200160405180910390a2505060018055565b3360009081526020819052604090205460ff16610c6c5760405162461bcd60e51b81526004016103a790611d5c565b600260015403610c8e5760405162461bcd60e51b81526004016103a790611e6b565b60026001556001600160a01b037f0000000000000000000000000000000000000000000000000000000000000000811690821603610cfe5760405162461bcd60e51b815260206004820152600d60248201526c24a72b20a624a22faa27a5a2a760991b60448201526064016103a7565b6040516370a0823160e01b81523060048201526000906001600160a01b038316906370a0823190602401602060405180830381865afa158015610d45573d6000803e3d6000fd5b505050506040513d601f19601f82011682018060405250810190610d699190611f17565b905060008111610d8b5760405162461bcd60e51b81526004016103a790611ee9565b610d9f6001600160a01b0383163383610ee7565b505060018055565b6002546040516370a0823160e01b8152306004820152600091906001600160a01b037f000000000000000000000000000000000000000000000000000000000000000016906370a0823190602401602060405180830381865afa158015610e12573d6000803e3d6000fd5b505050506040513d601f19601f82011682018060405250810190610e369190611f17565b610e409190611dca565b905090565b6001600160a01b0381166000908152600360208181526040808420815161010081018352815464ffffffffff8082168352600160281b82048116958301869052600160501b8204811694830194909452600160781b9004909216606083015260018101546080830152600281015460a0830152909201546001600160701b03811660c0840152600160701b900460ff16151560e08301526109a8908290610f3e565b604080516001600160a01b038416602482015260448082018490528251808303909101815260649091019091526020810180516001600160e01b031663a9059cbb60e01b179052610f399084906115f8565b505050565b60e082015160009081901561104a57836020015164ffffffffff168364ffffffffff161115610f6f57836020015192505b836040015164ffffffffff168364ffffffffff1610610fa35760c0840151610fa0906001600160701b031682611ea2565b90505b836000015164ffffffffff168364ffffffffff161115611043578351600090610fcc9085611f30565b6060860151909150600090610fe18184611f6c565b610feb9190611f90565b90506000866000015187602001516110039190611f30565b905060008164ffffffffff168364ffffffffff1689608001516110269190611fbd565b6110309190611fdc565b905061103c8186611ea2565b9450505050505b9050610775565b50505060a0015190565b6001600160a01b0387166000908152600360205260409020805488919064ffffffffff16156110bc5760405162461bcd60e51b8152602060048201526014602482015273434c41494d5f414c52454144595f45584953545360601b60448201526064016103a7565b6001600160a01b0389166111045760405162461bcd60e51b815260206004820152600f60248201526e494e56414c49445f4144445245535360881b60448201526064016103a7565b60006111108486611ff0565b6001600160701b03161161115e5760405162461bcd60e51b81526020600482015260156024820152741253959053125117d59154d5115117d05353d55395605a1b60448201526064016103a7565b60008864ffffffffff16116111b55760405162461bcd60e51b815260206004820152601760248201527f494e56414c49445f53544152545f54494d455354414d5000000000000000000060448201526064016103a7565b8664ffffffffff168864ffffffffff161061120a5760405162461bcd60e51b81526020600482015260156024820152740494e56414c49445f454e445f54494d455354414d5605c1b60448201526064016103a7565b60008564ffffffffff16116112615760405162461bcd60e51b815260206004820152601860248201527f494e56414c49445f52454c454153455f494e54455256414c000000000000000060448201526064016103a7565b8461126c8989611f30565b611276919061201b565b64ffffffffff16156112ca5760405162461bcd60e51b815260206004820152601760248201527f494e56414c49445f494e54455256414c5f4c454e47544800000000000000000060448201526064016103a7565b60008664ffffffffff161180156112ea57506000836001600160701b0316115b801561130457508764ffffffffff168664ffffffffff1611155b80611326575064ffffffffff861615801561132657506001600160701b038316155b6113625760405162461bcd60e51b815260206004820152600d60248201526c24a72b20a624a22fa1a624a32360991b60448201526064016103a7565b6000600360008b6001600160a01b03166001600160a01b031681526020019081526020016000209050888160000160006101000a81548164ffffffffff021916908364ffffffffff160217905550878160000160056101000a81548164ffffffffff021916908364ffffffffff1602179055508681600001600a6101000a81548164ffffffffff021916908364ffffffffff1602179055508581600001600f6101000a81548164ffffffffff021916908364ffffffffff160217905550838160030160006101000a8154816001600160701b0302191690836001600160701b03160217905550846001600160701b0316816001018190555060008160020181905550600181600301600e6101000a81548160ff0219169083151502179055506000858561148f9190611ff0565b6001600160701b03169050806002546114a89190611ea2565b6040516370a0823160e01b81523060048201527f00000000000000000000000000000000000000000000000000000000000000006001600160a01b0316906370a0823190602401602060405180830381865afa15801561150c573d6000803e3d6000fd5b505050506040513d601f19601f820116820180604052508101906115309190611f17565b101561154e5760405162461bcd60e51b81526004016103a790611ee9565b80600260008282546115609190611ea2565b9091555050600480546001810182556000919091527f8a35acfbc15ff81a39ae7d344fd709f28e8600b4aa8c65c6b64bfe7fe36bd19b0180546001600160a01b0319166001600160a01b038d169081179091556040517f03eb24c4ce930f600a870c3db9f6f0451dbf4c3cd9347b52146ab39a0dddd3a6906115e390859061203f565b60405180910390a25050505050505050505050565b600061164d826040518060400160405280602081526020017f5361666545524332303a206c6f772d6c6576656c2063616c6c206661696c6564815250856001600160a01b03166116ca9092919063ffffffff16565b805190915015610f39578080602001905181019061166b919061204e565b610f395760405162461bcd60e51b815260206004820152602a60248201527f5361666545524332303a204552433230206f7065726174696f6e20646964206e6044820152691bdd081cdd58d8d9595960b21b60648201526084016103a7565b60606116d984846000856116e1565b949350505050565b6060824710156117425760405162461bcd60e51b815260206004820152602660248201527f416464726573733a20696e73756666696369656e742062616c616e636520666f6044820152651c8818d85b1b60d21b60648201526084016103a7565b6001600160a01b0385163b6117995760405162461bcd60e51b815260206004820152601d60248201527f416464726573733a2063616c6c20746f206e6f6e2d636f6e747261637400000060448201526064016103a7565b600080866001600160a01b031685876040516117b5919061209b565b60006040518083038185875af1925050503d80600081146117f2576040519150601f19603f3d011682016040523d82523d6000602084013e6117f7565b606091505b5091509150611807828286611812565b979650505050505050565b606083156118215750816109a8565b8251156118315782518084602001fd5b8160405162461bcd60e51b81526004016103a791906120b7565b6001600160a01b038116811461186057600080fd5b50565b60006020828403121561187557600080fd5b81356109a88161184b565b803564ffffffffff8116811461189557600080fd5b919050565b600080604083850312156118ad57600080fd5b82356118b88161184b565b91506118c660208401611880565b90509250929050565b801515811461186057600080fd5b600080604083850312156118f057600080fd5b82356118fb8161184b565b9150602083013561190b816118cf565b809150509250929050565b60006101008201905064ffffffffff808451168352806020850151166020840152806040850151166040840152806060850151166060840152506080830151608083015260a083015160a083015260c083015161197e60c08401826001600160701b03169052565b5060e083015161199260e084018215159052565b5092915050565b6020808252825182820181905260009190848201906040850190845b818110156119da5783516001600160a01b0316835292840192918401916001016119b5565b50909695505050505050565b80356001600160701b038116811461189557600080fd5b600080600080600080600060e0888a031215611a1857600080fd5b8735611a238161184b565b9650611a3160208901611880565b9550611a3f60408901611880565b9450611a4d60608901611880565b9350611a5b60808901611880565b9250611a6960a089016119e6565b9150611a7760c089016119e6565b905092959891949750929550565b634e487b7160e01b600052604160045260246000fd5b604051601f8201601f1916810167ffffffffffffffff81118282101715611ac457611ac4611a85565b604052919050565b600067ffffffffffffffff821115611ae657611ae6611a85565b5060051b60200190565b600082601f830112611b0157600080fd5b81356020611b16611b1183611acc565b611a9b565b82815260059290921b84018101918181019086841115611b3557600080fd5b8286015b84811015611b59578035611b4c8161184b565b8352918301918301611b39565b509695505050505050565b600082601f830112611b7557600080fd5b81356020611b85611b1183611acc565b82815260059290921b84018101918181019086841115611ba457600080fd5b8286015b84811015611b5957611bb981611880565b8352918301918301611ba8565b600082601f830112611bd757600080fd5b81356020611be7611b1183611acc565b82815260059290921b84018101918181019086841115611c0657600080fd5b8286015b84811015611b5957611c1b816119e6565b8352918301918301611c0a565b600080600080600080600060e0888a031215611c4357600080fd5b873567ffffffffffffffff80821115611c5b57600080fd5b611c678b838c01611af0565b985060208a0135915080821115611c7d57600080fd5b611c898b838c01611b64565b975060408a0135915080821115611c9f57600080fd5b611cab8b838c01611b64565b965060608a0135915080821115611cc157600080fd5b611ccd8b838c01611b64565b955060808a0135915080821115611ce357600080fd5b611cef8b838c01611b64565b945060a08a0135915080821115611d0557600080fd5b611d118b838c01611bc6565b935060c08a0135915080821115611d2757600080fd5b50611d348a828b01611bc6565b91505092959891949750929550565b600060208284031215611d5557600080fd5b5035919050565b602080825260159082015274105113525397d050d0d154d4d7d491545552549151605a1b604082015260600190565b6020808252600f908201526e4e4f5f4143544956455f434c41494d60881b604082015260600190565b634e487b7160e01b600052601160045260246000fd5b600082821015611ddc57611ddc611db4565b500390565b805464ffffffffff8082168452602882901c81166020850152605082901c8116604085015260789190911c16606083015260018101546080830152600281015460a0830152600301546001600160701b03811660c083015260701c60ff16151560e090910152565b83815264ffffffffff8316602082015261014081016116d96040830184611de1565b6020808252601f908201527f5265656e7472616e637947756172643a207265656e7472616e742063616c6c00604082015260600190565b60008219821115611eb557611eb5611db4565b500190565b634e487b7160e01b600052603260045260246000fd5b600060018201611ee257611ee2611db4565b5060010190565b602080825260149082015273494e53554646494349454e545f42414c414e434560601b604082015260600190565b600060208284031215611f2957600080fd5b5051919050565b600064ffffffffff83811690831681811015611f4e57611f4e611db4565b039392505050565b634e487b7160e01b600052601260045260246000fd5b600064ffffffffff80841680611f8457611f84611f56565b92169190910492915050565b600064ffffffffff80831681851681830481118215151615611fb457611fb4611db4565b02949350505050565b6000816000190483118215151615611fd757611fd7611db4565b500290565b600082611feb57611feb611f56565b500490565b60006001600160701b0380831681851680830382111561201257612012611db4565b01949350505050565b600064ffffffffff8084168061203357612033611f56565b92169190910692915050565b61010081016107758284611de1565b60006020828403121561206057600080fd5b81516109a8816118cf565b60005b8381101561208657818101518382015260200161206e565b83811115612095576000848401525b50505050565b600082516120ad81846020870161206b565b9190910192915050565b60208152600082518060208401526120d681604085016020870161206b565b601f01601f1916919091016040019291505056fea264697066735822122035b3c618d4b9c70d37ccb2c10fb724771035ecc28696287fa50123ae15656a7d64736f6c634300080e0033",
  "linkReferences": {},
  "deployedLinkReferences": {}
}